:100000000C9463000C94C50D0C94EC0D0C948B00B7
:100010000C948B000C948B000C948B000C948B0034
:100020000C948B000C948B000C948B000C948B0024
:100030000C948B000C948B000C948B000C948B0014
:100040000C94B90C0C948B000C941B0F0C944D0F5A
:100050000C948B000C948B000C948B000C948B00F4
:100060000C948B000C948B0000000008000201002F
:100070000003040700000000000000000102040863
:100080001020408001020408102001020408102002
:10009000040404040404040402020202020203032E
:1000A00003030303000000002300260029000000D2
:1000B0000000250028002B0000000000240027007D
:1000C0002A00BF0D730F11241FBECFEFD8E0DEBF93
:1000D000CDBF12E0A0E0B1E0E0E5F2E202C00590A1
:1000E0000D92AA3DB107D9F725E0AAEDB2E001C013
:1000F0001D92A831B207E1F710E0C3E6D0E004C0DA
:100100002197FE010E942011C136D107C9F70E9434
:10011000B00D0C94D3100C940000E2E10E94320167
:100120000895E9E00E9432010895EAE00E94320158
:100130000895E1E00E9432010895E3E00E94320157
:100140000895E7E00E9432010895E5E00E9432013F
:100150000895E0E00E9432010895E2E00E94320139
:100160000895E4E00E9432010895ECE00E9432011B
:100170000895E8E00E9432010895EEE00E94320105
:100180000895E4E10E9432010895E0E10E94320105
:100190000895E7E10E9432010895E6E00E943201ED
:1001A0000895EBE00E9432010895EDE00E943201D3
:1001B0000895EFE00E9432010895E1E10E943201CA
:1001C0000895E3E10E9432010895E5E10E943201C1
:1001D0000895E6E10E943201089521968A929A924A
:1001E000AA92BA92CA92DA92EA92FA920A931A936D
:1001F0002197E0916901F0916A010080F181E02D81
:10020000C083D1830895C0916B01D0916C01E881C6
:10021000F981C081D181219619910991F990E990D4
:10022000D990C990B990A9909990899021970895F3
:100230002F903F90E7E6F1E0CDB7DEB7EDBFFEBF10
:100240003F922F9208952F903F90CDBFDEBF3F92F7
:100250002F920895E0E80E9432010895E0E40E94A0
:10026000320108952F923F924F925F926F927F9248
:100270002FB62F92CF93DF937E2EF894E09100015A
:10028000EF5FE0930001E13011F40E941801E0E01B
:10029000E0937901E72DE07849F00E94B805F091EC
:1002A0007A01F17071F00E943F040BC0E72DEC3130
:1002B00040F4EE0FF0E0E757FD4F0190F081E02DA4
:1002C0000995F0917901EF2FE17059F0F27011F07A
:1002D0000E94ED008F938F2F0E9487038F910E94C1
:1002E000030120910001215020930001222311F4E9
:1002F0000E942301DF91CF912F902FBE7F906F90AE
:100300005F904F903F902F900895CF92DF92EF92A1
:10031000FF920F931F93DC01EC91DB012C918E2F48
:100320008170C82ED12CE12CF12C8E2F8F7090E093
:10033000A0E0B0E0B695A79597958795DC01A95FF9
:10034000BC4F8C91C81AD108E108F108EE70422F19
:10035000417050E060E070E0822F8F7090E0A0E08C
:10036000B0E0B695A79597958795DC01A95FBC4F3E
:100370008C91481B510961097109822F8E70970178
:10038000860101701127222733270E2B4170552734
:1003900066277727482B81E090E00417150726078A
:1003A000370710F080E090E01F910F91FF90EF90E1
:1003B000DF90CF9008958F929F92AF92BF92EF926D
:1003C000FF920F931F93CF93DF937C014A015B0150
:1003D000B694A794979487944230510561057105AE
:1003E000E0F0440F551F8701040F151FE401CC0FE7
:1003F000DD1FCE0DDF1DB801CE010E948501892BC6
:1004000061F0F801908181812881398131832083D5
:1004100098838983B501A401DBCFDF91CF911F9130
:100420000F91FF90EF90BF90AF909F908F900895A5
:100430004F925F926F927F928F929F92AF92BF92F4
:10044000CF92DF92EF92FF920F931F93CF93DF93A0
:1004500000D000D000D0CDB7DEB78C016A017B019F
:10046000DC018C91282F30E040E050E029833A8372
:100470004B835C8346015701880C991CAA1CBB1C4A
:1004800029813A814B815C81281539054A055B0534
:1004900008F442C0240135013FEF431A530A630AAE
:1004A000730A89819A81AB81BC8184159505A60563
:1004B000B70580F0B201660F771F600F711FC4018E
:1004C000880F991F800F911F0E948501892B11F0C1
:1004D000530142013401660C771C600E711ECC0C76
:1004E000DD1CD801AC0DBD1DBE83AD83B301CD01B4
:1004F0000E948501892B81F0ED81FE8190818181AF
:10050000D3012D913C911197318320839C931196B7
:100510008C9375016401AECF26960FB6F894DEBFBA
:100520000FBECDBFDF91CF911F910F91FF90EF9044
:10053000DF90CF90BF90AF909F908F907F906F9003
:100540005F904F900895EAE3F4E040814F5F40836D
:1005500050E060E070E0E82FEE0FFF0BE15BFD4F35
:100560000190F081E02D238530E0F901E95FFC4F37
:10057000908191509083FA01EE0FFF1FE65CFB4FD4
:10058000220F331F9170292B208381838AE394E00B
:100590000C94DB01EAE3F4E040814F5F408350E0DC
:1005A00060E070E0E82FEE0FFF0BE75BFD4F01907E
:1005B000F081E02D9381FA01EE0FFF1FE65CFB4F07
:1005C000908381838AE394E00C94DB01CF93DF93E3
:1005D000EAE3F4E080819FEF980F9083D281C3819A
:1005E00090E0880F991FDC01A65CBB4F8D919C9118
:1005F0009383828341E050E060E070E0CF010E948D
:1006000018028D2F9C2FDF91CF9108958091DA02EF
:10061000811114C08091710190917201A0917301B8
:10062000B09174018F3F2FEF9207A207B20741F0FC
:100630000297A105B10534F481E0089584E008959E
:1006400080E0089582E00895880F990BFC01E15B3A
:10065000FD4F0190F081E02D0084F185E02D309771
:10066000E9F0228121111AC021E02283DC01A75B7D
:10067000BD4F0D90BC91A02D13968C911397818343
:10068000808190E0FC01E95FFC4F208121502083B4
:10069000880F991F2170822B13968C930895880FD1
:1006A000990BFC01E15BFD4F0190F081E02D00848E
:1006B000F185E02D309761F02281213049F41282DA
:1006C0002181FC01E75BFD4F0190F081E02D238348
:1006D00008958091750190917601A0917701B09174
:1006E0007801409171015091720160917301709194
:1006F0007401481759076A077B0741F0E0916F01C1
:10070000F091700121E024830C94CA020895CF93E4
:10071000DF93882391F0C0916901D0916A01E09143
:100720006D01F0916E018481833049F081E0848312
:10073000809171010E94CA0202C0C0E0D0E0E09145
:100740006F01F0917001F0936E01E0936D01809163
:100750006B0190916C0190936A0180936901809183
:100760007501309176012091770190917801809305
:10077000710130937201209373019093740192E0A0
:1007800094830E942403CE01DF91CF91089580913C
:1007900071010E944F03E0916D01F0916E01828121
:1007A000882319F085E08483089514820895CF93F7
:1007B000DF93282F220F330BF901E75BFD4FC08138
:1007C000D1819A81F901E15BFD4F0190F081E02D2B
:1007D0002485921770F4911105C095E09C8391E0F7
:1007E00090937A010E94A3028A818F5F8A8380E0BE
:1007F00001C084E0DF91CF910895E82FEE0FFF0B49
:10080000E75BFD4F0190F081E02D118210820C9486
:100810006A0D1F93CF93DF930E94E602182F892F52
:10082000492F092E000C550B660B770B4093750171
:10083000509376016093770170937801292F220FEE
:10084000330BF901E75BFD4FC081D181D09370017B
:10085000C0936F01F901E15BFD4F2081318130933D
:100860006C0120936B019C81953019F40E94FD036B
:100870001B8310927A01DF91CF911F910895E0912F
:100880007501F0917601EE0FFF1FE75BFD4F0190C0
:10089000F081E02D90913C048381891730F40E940F
:1008A00069030E94090483E001C080E0809379011C
:1008B000089581E0809379010C940904CF93DF932C
:1008C000C1E0D0E001C0CC0F8A95EAF72091530235
:1008D0003091540280914D0290914E0210923A0450
:1008E00010926A011092690130936C0120936B01A0
:1008F00010926E0110926D019093700180936F01C0
:100900008FEF9FEFDC018093710190937201A093B0
:100910007301B09374018093750190937601A09355
:100920007701B09378011092790110927A0182E0F8
:100930000E94D703809185028C2319F080E00E94E9
:10094000D703809186028C2319F081E00E94D7039F
:10095000809183028C2349F080913302909134027C
:1009600021E0FC0126870E94F10480918402C823C3
:1009700059F0809135029091360221E0FC012687E2
:10098000DF91CF910C94F104DF91CF9108950E94F3
:100990009F0681110E94C006E0916D01F0916E01E9
:1009A00080819181892B21F0809171010E948708BB
:1009B0000C94E8070E949F0681110E94C006E091F6
:1009C0006D01F0916E0180819181892B21F08091E0
:1009D00071010E9487080C94D00781E08093DB02AC
:1009E0000895AF92BF92CF92DF92EF92FF920F9352
:1009F0001F93CF93DF93FC01A081B181AD90BC9098
:100A0000E501AC89BD89109739F04285538564852D
:100A1000758530E020E017C0D50155969C938E93E4
:100A2000549757969C938E935697158214821382EF
:100A300012825BC012968D919C9113973A2F2B2FA7
:100A4000009779F0DC011A96CD90DD90ED90FC9046
:100A50001D974C155D056E057F0560F7CD01A32F31
:100A6000B22F93838283B583A483009719F0EC019E
:100A7000FD83EC83109729F01396FC93EE93129765
:100A800005C0D5015596FC93EE935497E501AE89C8
:100A9000BF891A968D919D910D90BC91A02D0889CA
:100AA00019892A893B8980179107A207B30780F427
:100AB000041715072607370728F0481759076A074C
:100AC0007B0798F4D5015796FC93EE9356970DC08B
:100AD000041715072607370740F4481759076A0710
:100AE0007B0718F4E501FF8BEE8BDF91CF911F910F
:100AF0000F91FF90EF90DF90CF90BF90AF9008954F
:100B0000CF93DF93DC01ED91FC9111970190F0817F
:100B1000E02D848995891296CD91DC911397A817C1
:100B2000B90711F4D58BC48B86899789A817B907A3
:100B300011F4D78BC68B209731F014968D919C9130
:100B400015979D838C8314960D90BC91A02D1097C2
:100B500021F01396DC93CE93129786899789892B7F
:100B600021F484899589978B868BDF91CF910895A5
:100B7000EF92FF920F931F93CF93DF93FC0180912D
:100B8000DB02882309F4B5C084859585A685B785E1
:100B90000196A11DB11D84879587A687B7874081DF
:100BA00051816281738184179507A607B70709F001
:100BB000A0C040895189628973894F5F5F4F6F4F31
:100BC0007F4F84819581A681B78184179507A607F9
:100BD000B70718F440E050E0BA01408B518B628BAC
:100BE000738B1486158616861786C689D789209733
:100BF00009F47FC08A859B85AC85BD854817590758
:100C00006A077B0709F075C0CE01DC011296ED90F2
:100C1000FC901397E114F10471F0D7011A960D912D
:100C20001D912D913C911D97401751076207730745
:100C300011F4C701EACF2C813D812115310529F03E
:100C4000D9011396FC92EE921297E114F10429F067
:100C5000D70115963C932E93149724893589C21792
:100C6000D30711F4F58AE48AE114F10419F0F78A44
:100C7000E68A04C024893589378B268B8F01FC01D5
:100C800013821282EA80FB80E881F9810280F3817D
:100C9000E02DCE0109954E815F81688579854115EA
:100CA00051056105710509F18A859B85AC85BD8576
:100CB000840F951FA61FB71FF801448155816681D7
:100CC0007781481759076A077B0738F4841B950B0F
:100CD000A60BB70B0197A109B1098A879B87AC873F
:100CE000BD87CE010E94F10401C01E86E701209756
:100CF00049F6DF91CF911F910F91FF90EF900895EA
:100D0000FC0182810C94D7030E949F0680916801A8
:100D10000895809368010E945E040E94ED040C9483
:100D200059040C94690DCF93C82F0E9406038111BA
:100D300002C00E94A60D8C2FCF910C94910080913F
:100D4000E8028130D9F08091E0029091E102A09117
:100D5000E202B091E302892B8A2B8B2B79F481E09C
:100D60004091E4025091E5026091E6027091E70241
:100D7000452B462B472B19F480E0089581E0089518
:100D80001092E8021092E4021092E5021092E6023C
:100D90001092E7021092E0021092E1021092E20239
:100DA0001092E3028091DC029091DD02A091DE02BC
:100DB000B091DF028093E9029093EA02A093EB02E4
:100DC000B093EC0208950E94A90D8091E9029091E0
:100DD000EA02A091EB02B091EC020196A11DB11DB7
:100DE0008093E9029093EA02A093EB02B093EC02A5
:100DF0008091E4029091E502A091E602B091E702B1
:100E00000196A11DB11D8093E4029093E502A09389
:100E1000E602B093E70208958091E4029091E50222
:100E2000A091E602B091E7020097A105B10569F132
:100E30004091E9025091EA026091EB027091EC025C
:100E400041505109610971094093E9025093EA0246
:100E50006093EB027093EC020197A109B1098093B2
:100E6000E4029093E502A093E602B093E70280913A
:100E7000E9029091EA02A091EB02B091EC02892B79
:100E80008A2B8B2B11F40C94A70D08958091E4020A
:100E90009091E502A091E602B091E702892B8A2B9E
:100EA0008B2B89F48091E0029091E102A091E20203
:100EB000B091E302892B8A2B8B2B29F40E94A90D78
:100EC00081E08093E80208958091E802882321F070
:100ED0001092E8020C94A70D08950E94AD0D809128
:100EE000E9029091EA02A091EB02B091EC02019626
:100EF000A11DB11D8093E9029093EA02A093EB0239
:100F0000B093EC028091E0029091E102A091E202A4
:100F1000B091E3020196A11DB11D8093E002909370
:100F2000E102A093E202B093E30208958091E0020F
:100F30009091E102A091E202B091E3020097A10535
:100F4000B10569F14091E9025091EA026091EB022A
:100F50007091EC0241505109610971094093E90215
:100F60005093EA026093EB027093EC020197A1099F
:100F7000B1098093E0029093E102A093E202B09362
:100F8000E3028091E9029091EA02A091EB02B09114
:100F9000EC02892B8A2B8B2B11F40C94AB0D08954A
:100FA0000E949F06882311F083E1089580E0089550
:100FB000CF93C82F0E949F068C2F0E94D703C82F63
:100FC00080917A0181110E943F048C2FCF91089566
:100FD000CF930E949F06882311F0C3E101C0C0E0B7
:100FE000E0916D01F0916E018281815082830E94B7
:100FF000C70381E0809379010E9409048C2FCF916F
:101000000895CF93C82F0E949F06E0916D01F09143
:101010006E018281815082838C2F0E94D703C82F5A
:10102000811108C00E94C70381E0809379010E946A
:10103000090407C0E0916D01F0916E0182818F5F1C
:1010400082838C2FCF910895CF930E949F0688238F
:1010500011F0C3E101C0C0E0809171010E944F0313
:101060000E943F048091710190917201A0917301DF
:10107000B0917401409175015091760160917701B2
:101080007091780184179507A607B70711F40E949D
:1010900024038C2FCF910895CF93DF93EC010E940E
:1010A0009F06882311F083E101C080E04091710127
:1010B0005091720160917301709174014230510539
:1010C0006105710514F4488303C09091CA019883A7
:1010D000DF91CF9108950F931F93CF93C82F8B016A
:1010E0000E949F06882311F083E101C080E0EC2F6D
:1010F000EE0FFF0BE75BFD4F0190F081E02D948137
:101100009370F8019083CF911F910F910895880FEC
:10111000990BFC01E75BFD4FA081B181ED91FC9142
:101120001197309769F01D921C922091CA0193810A
:101130008481228314821382E92FF82F3097B9F724
:101140000895CF93C82F0E949F06882311F083E152
:1011500001C080E0EC2FF0E0EE0FFF1FE158FD4FE3
:10116000A081B1819091710112969C931297E091A8
:101170006D01F0916E012081318114963C932E9384
:101180001397B183A083938111969C9311972C910F
:1011900093819695921760F430E0D901A95FBC4F16
:1011A0009C9191509C93220F331F9170292B238384
:1011B000CF910895CF93DF93C82F0E949F06882375
:1011C00011F0D3E101C0D0E0EC2FF0E0EE0FFF1FF3
:1011D000E158FD4F0190F081E02DA0916D01B0919B
:1011E0006E01818113968C931397838194818D93E3
:1011F0009C93148213828091CA0182830E943F04CF
:101200008D2FDF91CF910895DC01ED91FC918481C8
:101210009581DC01ED91FC9109941F93CF93DF93AD
:10122000182FEB010E949F06882311F083E101C073
:1012300080E0E12FF0E0EE0FFF1FED5CFD4F01902D
:10124000F081E02D0190F081E02D0190F081E02D02
:1012500040815181628173814C835D836E837F8382
:101260004481558166817781488359836A837B8372
:101270004085518562857385488759876A877B8752
:10128000DF91CF911F9108958F929F92AF92BF925D
:10129000CF92DF92EF92FF920F931F93CF93C82FBD
:1012A0008B010E949F06882311F083E101C080E03A
:1012B000EC2FF0E0EE0FFF1FED5CFD4F0190F08191
:1012C000E02D9685913029F5428553856485758595
:1012D0000190F081E02D0190F081E02DC088D1884F
:1012E000E288F3884C155D056E057F0540F4848027
:1012F0009580A680B780480D591D6A1D7B1D4C192D
:101300005D096E097F09F80140835183628373830D
:1013100001C085E0CF911F910F91FF90EF90DF907A
:10132000CF90BF90AF909F908F9008958F929F9293
:10133000AF92BF92CF92DF92EF92FF920F931F93E3
:10134000CF93DF93D82F4A015B01680179010E9496
:101350009F06882311F0C3E101C0C0E0ED2FF0E04B
:10136000EE0FFF1FED5CFD4F0190F081E02D8685B3
:10137000811130C0A081B1810D90BC91A02D5096FB
:101380004D915D916D917C915397480D591D6A1D4A
:101390007B1D14968D919D910D90BC91A02D84176D
:1013A0009507A607B70740F4481B590B6A0B7B0B40
:1013B00041505109610971094287538764877587D4
:1013C000C682D782E086F18681E08687CF010E94BF
:1013D000F10401C0C7E08C2FDF91CF911F910F91D5
:1013E000FF90EF90DF90CF90BF90AF909F908F9045
:1013F00008958F929F92AF92BF92CF92DF92EF9219
:10140000FF920F931F93CF93DF93C82F4A015B0185
:10141000680179010E949F06882311F0D3E101C081
:10142000D0E0EC2FF0E0EE0FFF1FED5CFD4F0190E0
:10143000F081E02D868581110EC082869386A48678
:10144000B586C682D782E086F18681E08687CF01A5
:101450000E94F10401C0D7E08D2FDF91CF911F9141
:101460000F91FF90EF90DF90CF90BF90AF909F9043
:101470008F9008950F931F93CF93DF93C82F0E94EF
:101480009F06882311F0D3E101C0D0E0EC2FF0E0FB
:10149000EE0FFF1FED5CFD4F00811181F801868585
:1014A000813031F4C8010E948005F801168601C020
:1014B000D5E08D2FDF91CF911F910F91089561E0BD
:1014C0008DE00E94250C26E040E052EC61E070E0E7
:1014D0008BE193E00E946E1060E08EE00E94250C8C
:1014E0006BEC71E08BE193E00E945F0E80918802CB
:1014F0000C9493060F931F93CF93DF9361ED71E0EC
:101500008BE193E00E94520E8EE00E944B0DEC01A5
:101510000A978C3E934038F081E090E09093F60279
:101520008093F50204C01092F6021092F50260EE6C
:1015300071E08BE193E00E94520E4AE050E0BE0160
:101540008BE193E00E94020F63EE71E08BE193E088
:101550000E94520E6091F5027091F6024AE050E04E
:101560008BE193E00E94090F8091F7029091F802BD
:1015700005970CF5E091F902F091FA02EE0FFF1FCA
:10158000E350FD4FD183C0838091F9029091FA021C
:10159000019665E070E00E94D6109093FA02809365
:1015A000F9028091F7029091F80201969093F80267
:1015B0008093F70206C06BEE71E08BE193E00E942E
:1015C0005F0E8091F1029091F202019665E070E069
:1015D0000E94D6109093F2028093F102892B09F0B9
:1015E00093C08091F7029091F802892B09F478C09A
:1015F000E091FB02F091FC02EE0FFF1FE350FD4F64
:1016000000811181E091FB02F091FC02EE0FFF1FBF
:10161000E350FD4FC081D18125E030E08091F70299
:101620009091F8021816190644F5E091FB02F0912A
:10163000FC02EE0FFF1FE350FD4F80819181801768
:1016400091070CF48C01C817D9070CF4EC018091B8
:10165000FB029091FC020196B9010E94D610909372
:10166000FC028093FB028091F7029091F8020197AF
:101670009093F8028093F702D1CF63E072E08BE1A0
:1016800093E00E94520E4AE050E0BE018BE193E0ED
:101690000E94020F66E072E08BE193E00E94520E1E
:1016A0004AE050E0B8018BE193E00E94020F6AE04B
:1016B00072E08BE193E00E94520EC01BD10B4AE016
:1016C00050E0BE018BE193E00E94090FC53FD1407D
:1016D0003CF081E090E09093F4028093F30204C028
:1016E0001092F4021092F30263E172E08BE193E056
:1016F0000E94520E6091F3027091F4024AE050E0B1
:101700008BE193E00E94090FDF91CF911F910F9120
:101710000C94B9006AE172E08BE193E00E94520EF2
:101720002091F5023091F6028091F3029091F4023B
:101730002130310519F482E090E003C08130910539
:1017400029F49093EE028093ED0204C01092EE0211
:101750001092ED028091ED029091EE0281309105A0
:1017600031F08230910519F1892B79F526C08091ED
:10177000EF029091F00283709927892B51F48DE04C
:101780000E94900C61E0892B09F060E08DE00E94DE
:10179000610C8091EF029091F002019664E070E09C
:1017A0000E94D6109093F0028093EF020EC08DE05D
:1017B0000E94900C61E0892B09F060E08DE00E94AE
:1017C000610C1092F0021092EF0269E272E08BE17C
:1017D00093E00E94520E6091ED027091EE024AE099
:1017E00050E08BE193E00E94090F0C94B90083EA6A
:1017F00091E00C942A010895833081F028F481301F
:1018000099F08230A1F008958730A9F08830B9F0BE
:101810008430D1F4809180008F7D03C0809180005E
:101820008F7780938000089584B58F7702C084B548
:101830008F7D84BD08958091B0008F7703C0809123
:10184000B0008F7D8093B0000895CF93DF9390E038
:10185000FC01E458FF4F2491FC01E057FF4F8491B5
:10186000882361F190E0880F991FFC01E854FF4F35
:10187000C591D491FC01E255FF4FA591B49161113E
:1018800009C09FB7F8948881209582238883EC91C2
:101890002E230BC0623061F49FB7F8948881322FF9
:1018A000309583238883EC912E2B2C939FBF06C009
:1018B0008FB7F894E8812E2B28838FBFDF91CF91CB
:1018C00008951F93CF93DF93282F30E0F901E85953
:1018D000FF4F8491F901E458FF4FD491F901E0578B
:1018E000FF4FC491CC23C1F0162F81110E94FC0B35
:1018F000EC2FF0E0EE0FFF1FE255FF4FA591B491E2
:101900009FB7F894111104C08C91D095D82302C0D0
:10191000EC91DE2BDC939FBFDF91CF911F91089557
:10192000CF93DF93282F30E0F901E859FF4F8491DE
:10193000F901E458FF4FD491F901E057FF4FC491EA
:10194000CC2391F081110E94FC0BEC2FF0E0EE0F04
:10195000FF1FEC55FF4FA591B491EC91ED2381E071
:1019600090E021F480E002C080E090E0DF91CF9130
:1019700008951F920F920FB60F9211242F933F9349
:101980004F935F936F937F938F939F93AF93BF9387
:10199000EF93FF938091120390911303A09114038E
:1019A000B09115033091110323E0230F2D3720F45C
:1019B0000196A11DB11D05C026E8230F0296A11DA9
:1019C000B11D209311038093120390931303A093EE
:1019D0001403B09315038091160390911703A091FF
:1019E0001803B09119030196A11DB11D8093160330
:1019F00090931703A0931803B09319030E94F70B59
:101A0000FF91EF91BF91AF919F918F917F916F91D6
:101A10005F914F913F912F910F900FBE0F901F90AC
:101A2000189584B5826084BD84B5816084BD85B518
:101A3000826085BD85B5816085BDEEE6F0E0808180
:101A400081608083E1E8F0E01082808182608083A1
:101A5000808181608083E0E8F0E080818160808324
:101A6000E1EBF0E0808184608083E0EBF0E0808156
:101A700081608083EAE7F0E08081846080838081F8
:101A800082608083808181608083808180688083A0
:101A90001092C10008958E3008F08E502091C5013B
:101AA00090E4299F900111248770822B80937C0001
:101AB00080917A00806480937A0080917A0086FD1C
:101AC000FCCF809178002091790090E0922B0895CE
:101AD000FFCFFFCFCF93DF93880F990BFC01E15B22
:101AE000FD4FC081D181AC81BD8111978A819B81DD
:101AF000A80FB91F2D85CD010197FD013297223026
:101B000019F421EB30E002C02DEC30E02C93DC0125
:101B10003C939E818F819083DF018E93CF01079745
:101B20001E928A179B07E1F780E8DF0118978C93D4
:101B3000CF0144971E928A179B07E1F7A881B981CC
:101B40007597ED93FC93DF91CF9108950895789464
:101B50000895F894089578940895F8940895089550
:101B60000E94110D0E94AF0D0E94FB0B0E945F0AA4
:101B700080911A030E94930680E090E0089580917E
:101B8000870280931A03089508951F920F920FB64B
:101B90000F9211242F933F934F935F936F937F93F3
:101BA0008F939F93AF93BF93EF93FF93E091C60101
:101BB000F091C7010995FF91EF91BF91AF919F916E
:101BC0008F917F916F915F914F913F912F910F90E6
:101BD0000FBE0F901F9018951F920F920FB60F9285
:101BE00011242F933F934F935F936F937F938F9322
:101BF0009F93AF93BF93EF93FF93E091C801F09150
:101C0000C9010995FF91EF91BF91AF919F918F917C
:101C10007F916F915F914F913F912F910F900FBEE8
:101C20000F901F901895CF92DF92EF92FF920F9333
:101C30001F93CF93DF936C017A018B01C0E0D0E05A
:101C4000CE15DF0581F0D8016D918D01D601ED91A2
:101C5000FC910190F081E02DC6010995892B11F0CE
:101C60002196EECF7E01C701DF91CF911F910F9199
:101C7000FF90EF90DF90CF9008956115710579F096
:101C8000FB0101900020E9F73197AF01461B570B8C
:101C9000DC01ED91FC910280F381E02D099480E05C
:101CA00090E008950C943D0EDC01ED91FC910190C3
:101CB000F081E02D099469EB72E00C943D0E0F93D6
:101CC0001F93CF93DF93EC010E943D0E8C01CE0158
:101CD0000E945B0E800F911FDF91CF911F910F919A
:101CE00008958F929F92AF92BF92EF92FF920F93BF
:101CF0001F93CF93DF93CDB7DEB7A1970FB6F894BC
:101D0000DEBF0FBECDBF7C01FA01CB0119A222308C
:101D100008F42AE08E010F5D1F4F822E912CA12C1A
:101D2000B12CBF01A50194010E94EA10F901CA017A
:101D3000015011096A3014F4605D01C0695CD8017A
:101D40006C93232B242B252B61F7B801C7010E942C
:101D50003D0EA1960FB6F894DEBF0FBECDBFDF914A
:101D6000CF911F910F91FF90EF90BF90AF909F90F8
:101D70008F900895CF92DF92EF92FF920F931F936F
:101D8000CF93DF932115310581F4DC01ED91FC91B6
:101D90000190F081E02D642FDF91CF911F910F9181
:101DA000FF90EF90DF90CF9009942A30310501F534
:101DB00077FF1DC06A017B01EC016DE20E94540EA9
:101DC0008C0144275527BA014C195D096E097F091A
:101DD0002AE0CE010E94710E800F911FDF91CF91FA
:101DE0001F910F91FF90EF90DF90CF9008952AE020
:101DF000DF91CF911F910F91FF90EF90DF90CF90E7
:101E00000C94710E9A01AB01770F660B770B0C9453
:101E1000BA0E0F931F93CF93DF93EC010E94020F32
:101E20008C01CE010E945B0E800F911FDF91CF913C
:101E30001F910F9108951F920F920FB60F921124C8
:101E40002F938F939F93EF93FF93E0912B03F09148
:101E50002C038081E0913103F091320382FD12C0A6
:101E60009081809134038F5F8F73209135038217A7
:101E700051F0E0913403F0E0E55EFC4F958F8093E4
:101E8000340301C08081FF91EF919F918F912F9139
:101E90000F900FBE0F901F9018951F920F920FB6C4
:101EA0000F9211242F933F934F935F936F937F93E0
:101EB0008F939F93AF93BF93EF93FF938BE193E047
:101EC0000E94DD0FFF91EF91BF91AF919F918F9194
:101ED0007F916F915F914F913F912F910F900FBE26
:101EE0000F901F901895EBE1F3E01382128288EEB9
:101EF00093E0A0E0B0E084839583A683B7838CEC65
:101F000092E09183808385EC90E09587848784ECD0
:101F100090E09787868780EC90E0918B808B81ECB6
:101F200090E0938B828B82EC90E0958B848B86EC97
:101F300090E0978B868B118E128E138E148E0895DF
:101F4000FC01918D228D892F90E0805C9F4F821B38
:101F500091098F7399270895FC01918D828D9817AF
:101F600031F0828DE80FF11D858D90E008958FEF9F
:101F70009FEF0895FC01918D828D981761F0828DFD
:101F8000DF01A80FB11D5D968C91928D9F5F9F73AD
:101F9000928F90E008958FEF9FEF0895FC01538D8D
:101FA000448D252F30E0842F90E0821B930B541733
:101FB00010F0CF96089501970895FC01848DDF01FC
:101FC000A80FB11DA35ABF4F2C91848D90E00196AC
:101FD0008F739927848FA689B7892C93A089B1899B
:101FE0008C91837080648C93938D848D981306C03C
:101FF0000288F389E02D80818F7D80830895EF92A0
:10200000FF920F931F93CF93DF93EC0181E0888FB2
:102010009B8D8C8D981305C0E889F989808185FD99
:1020200026C0F62E0B8D10E00F5F1F4F0F73112788
:10203000E02E8C8DE8120CC00FB607FCFACFE889B1
:10204000F989808185FFF5CFCE010E94DD0FF1CFA8
:102050008B8DFE01E80FF11DE35AFF4FF0829FB711
:10206000F8940B8FEA89FB89808180620AC09FB750
:10207000F894EE89FF896083E889F989808183700B
:10208000806480839FBF81E090E0DF91CF911F91BA
:102090000F91FF90EF900895CF93DF93EC01888D1F
:1020A0008823C9F0EA89FB89808185FD05C0A8895C
:1020B000B9898C9186FD0FC00FB607FCF5CF8081E2
:1020C00085FFF2CFA889B9898C9185FFEDCFCE012C
:1020D0000E94DD0FE7CFDF91CF910895CF92DF927D
:1020E000EF92FF921F93CF93DF93EC016A017B0184
:1020F000122FE889F98982E080834115514E6105EC
:102100007105B1F060E079E08DE390E0A701960100
:102110000E94EA10DA01C9010197A109B109B69537
:10212000A795979587959C01211580E13807A8F020
:10213000E889F989108260E874E88EE190E0A701EF
:1021400096010E94EA10DA01C9010197A109B109BB
:10215000B695A795979587959C01EC85FD8530836D
:10216000EE85FF852083188EEC89FD891083EA892E
:10217000FB89808180618083EA89FB898081886016
:102180008083EA89FB89808180688083EA89FB8972
:1021900080818F7D8083DF91CF911F91FF90EF90A1
:1021A000DF90CF900895F8940C94261197FB072E9A
:1021B00016F4009407D077FD09D00E940C1107FC9B
:1021C00005D03EF4909581959F4F08957095619547
:1021D0007F4F0895A1E21A2EAA1BBB1BFD010DC063
:1021E000AA1FBB1FEE1FFF1FA217B307E407F507C7
:1021F00020F0A21BB30BE40BF50B661F771F881FA3
:10220000991F1A9469F760957095809590959B0138
:10221000AC01BD01CF010895AA1BBB1B51E107C052
:10222000AA1FBB1FA617B70710F0A61BB70B881F66
:10223000991F5A95A9F780959095BC01CD010895F5
:10224000EE0FFF1F0590F491E02D0994F894FFCF55
:10225000000000000000000000000000000000007E
:10226000000000000000000000000000000000006E
:10227000000000000000000000000000000000005E
:10228000000000000000000000000000000000004E
:10229000000000000000000000000000000000003E
:1022A000000000000000000000000000000000002E
:1022B0000000000000000000FF0000710200000CA0
:1022C00003FFFFFFFFFFFFFFFF00003702000000DA
:1022D000007A0000007A00000002400200000000C6
:1022E0006200000062000000020000000304000021
:1022F00000020001000000FFFF00000100000000DC
:1023000000000000000000000000000400FF0000CA
:102310000100FF000001C40DC40DFF53746172740D
:10232000005461736B572072756E6E696E673A0068
:10233000583D00206572726F723D0051756575657C
:10234000206F766572666C6F7720696E20546173BA
:102350006B57004D3D00204E3D0020204D2D4E205E
:102360003D2000616C61726D3D005461736B5620BD
:1023700072756E6E696E673A004C45445F6D6F64AE
:10238000653D008A017B01A30104093D028006002E
:10239000A301040946028006019E0199010C036312
:1023A0000255027102B803BA0380007A0A000001E4
:1023B0000301001605960480008A0B00000002014C
:1023C00000440446045000680D000002000100C0F3
:1023D00001BB01010100010000960764076D07467B
:1023E00007DA04E306C7040C07E80789069106A18B
:1023F00008D807DA0801080D094C08440984069634
:10240000092408F9093A0A6B080D0A006E616E008A
:10241000696E66006F76660000000000FF0F130E05
:0A242000CE0F4C10A00FBA0FAC0F46
:00000001FF
