:100000000C9463000C94F30D0C941A0E0C948B005A
:100010000C948B000C948B000C948B000C948B0034
:100020000C948B000C948B000C948B000C948B0024
:100030000C948B000C948B000C948B000C948B0014
:100040000C94E70C0C948B000C94490F0C947B0FD0
:100050000C948B000C948B000C948B000C948B00F4
:100060000C948B000C948B0000000008000201002F
:100070000003040700000000000000000102040863
:100080001020408001020408102001020408102002
:10009000040404040404040402020202020203032E
:1000A00003030303000000002300260029000000D2
:1000B0000000250028002B0000000000240027007D
:1000C0002A00ED0DA10F11241FBECFEFD8E0DEBF37
:1000D000CDBF12E0A0E0B1E0ECEAF2E202C0059090
:1000E0000D92AC3DB107D9F725E0ACEDB2E001C00F
:1000F0001D92AA31B207E1F710E0C3E6D0E004C0D8
:100100002197FE010E944E11C136D107C9F70E9406
:10011000DE0D0C9401110C940000E2E10E9432010A
:100120000895E9E00E9432010895EAE00E94320158
:100130000895E1E00E9432010895E3E00E94320157
:100140000895E7E00E9432010895E5E00E9432013F
:100150000895E0E00E9432010895E2E00E94320139
:100160000895E4E00E9432010895ECE00E9432011B
:100170000895E8E00E9432010895EEE00E94320105
:100180000895E4E10E9432010895E0E10E94320105
:100190000895E7E10E9432010895E6E00E943201ED
:1001A0000895EBE00E9432010895EDE00E943201D3
:1001B0000895EFE00E9432010895E1E10E943201CA
:1001C0000895E3E10E9432010895E5E10E943201C1
:1001D0000895E6E10E943201089521968A929A924A
:1001E000AA92BA92CA92DA92EA92FA920A931A936D
:1001F0002197E0916901F0916A010080F181E02D81
:10020000C083D1830895C0916B01D0916C01E881C6
:10021000F981C081D181219619910991F990E990D4
:10022000D990C990B990A9909990899021970895F3
:100230002F903F90E7E6F1E0CDB7DEB7EDBFFEBF10
:100240003F922F9208952F903F90CDBFDEBF3F92F7
:100250002F920895E0E80E9432010895E0E40E94A0
:10026000320108952F923F924F925F926F927F9248
:100270002FB62F92CF93DF937E2EF894E09100015A
:10028000EF5FE0930001E13011F40E941801E0E01B
:10029000E0937901E72DE07849F00E94BD05F091E7
:1002A0007A01F17071F00E943F040BC0E72DEC3130
:1002B00040F4EE0FF0E0E657FD4F0190F081E02DA5
:1002C0000995F0917901EF2FE17059F0F27011F07A
:1002D0000E94ED008F938F2F0E9487038F910E94C1
:1002E000030120910001215020930001222311F4E9
:1002F0000E942301DF91CF912F902FBE7F906F90AE
:100300005F904F903F902F900895CF92DF92EF92A1
:10031000FF920F931F93DC01EC91DB012C918E2F48
:100320008170C82ED12CE12CF12C8E2F8F7090E093
:10033000A0E0B0E0B695A79597958795DC01A75FFB
:10034000BC4F8C91C81AD108E108F108EE70422F19
:10035000417050E060E070E0822F8F7090E0A0E08C
:10036000B0E0B695A79597958795DC01A75FBC4F40
:100370008C91481B510961097109822F8E70970178
:10038000860101701127222733270E2B4170552734
:1003900066277727482B81E090E00417150726078A
:1003A000370710F080E090E01F910F91FF90EF90E1
:1003B000DF90CF9008958F929F92AF92BF92EF926D
:1003C000FF920F931F93CF93DF937C014A015B0150
:1003D000B694A794979487944230510561057105AE
:1003E000E0F0440F551F8701040F151FE401CC0FE7
:1003F000DD1FCE0DDF1DB801CE010E948501892BC6
:1004000061F0F801908181812881398131832083D5
:1004100098838983B501A401DBCFDF91CF911F9130
:100420000F91FF90EF90BF90AF909F908F900895A5
:100430004F925F926F927F928F929F92AF92BF92F4
:10044000CF92DF92EF92FF920F931F93CF93DF93A0
:1004500000D000D000D0CDB7DEB78C016A017B019F
:10046000DC018C91282F30E040E050E029833A8372
:100470004B835C8346015701880C991CAA1CBB1C4A
:1004800029813A814B815C81281539054A055B0534
:1004900008F442C0240135013FEF431A530A630AAE
:1004A000730A89819A81AB81BC8184159505A60563
:1004B000B70580F0B201660F771F600F711FC4018E
:1004C000880F991F800F911F0E948501892B11F0C1
:1004D000530142013401660C771C600E711ECC0C76
:1004E000DD1CD801AC0DBD1DBE83AD83B301CD01B4
:1004F0000E948501892B81F0ED81FE8190818181AF
:10050000D3012D913C911197318320839C931196B7
:100510008C9375016401AECF26960FB6F894DEBFBA
:100520000FBECDBFDF91CF911F910F91FF90EF9044
:10053000DF90CF90BF90AF909F908F907F906F9003
:100540005F904F900895ECE3F4E040814F5F40836B
:1005500050E060E070E0E82FEE0FFF0BE15BFD4F35
:100560000190F081E02D238530E0F901E75FFC4F39
:10057000908191509083FA01EE0FFF1FE45CFB4FD6
:10058000220F331F9170292B208381838CE394E009
:100590000C94DB01ECE3F4E040814F5F408350E0DA
:1005A00060E070E0E82FEE0FFF0BE75BFD4F01907E
:1005B000F081E02D9381FA01EE0FFF1FE45CFB4F09
:1005C000908381838CE394E00C94DB01CF93DF93E1
:1005D000ECE3F4E080819FEF980F9083D281C38198
:1005E00090E0880F991FDC01A45CBB4F8D919C911A
:1005F0009383828341E050E060E070E0CF010E948D
:1006000018028D2F9C2FDF91CF9108958091DC02ED
:10061000811114C08091710190917201A0917301B8
:10062000B09174018F3F2FEF9207A207B20741F0FC
:100630000397A105B10534F481E0089584E008959D
:1006400080E0089582E00895880F990BFC01E15B3A
:10065000FD4F0190F081E02D0084F185E02D309771
:10066000E9F0228121111AC021E02283DC01A75B7D
:10067000BD4F0D90BC91A02D13968C911397818343
:10068000808190E0FC01E75FFC4F208121502083B6
:10069000880F991F2170822B13968C930895880FD1
:1006A000990BFC01E15BFD4F0190F081E02D00848E
:1006B000F185E02D309761F02281213049F41282DA
:1006C0002181FC01E75BFD4F0190F081E02D238348
:1006D00008958091750190917601A0917701B09174
:1006E0007801409171015091720160917301709194
:1006F0007401481759076A077B0741F0E0916F01C1
:10070000F091700121E024830C94CA020895CF93E4
:10071000DF93882391F0C0916901D0916A01E09143
:100720006D01F0916E018481833049F081E0848312
:10073000809171010E94CA0202C0C0E0D0E0E09145
:100740006F01F0917001F0936E01E0936D01809163
:100750006B0190916C0190936A0180936901809183
:100760007501309176012091770190917801809305
:10077000710130937201209373019093740192E0A0
:1007800094830E942403CE01DF91CF91089580913C
:1007900071010E944F03E0916D01F0916E01828121
:1007A000882319F085E08483089514820895CF93F7
:1007B000DF93282F220F330BF901E75BFD4FC08138
:1007C000D1819A81F901E15BFD4F0190F081E02D2B
:1007D0002485921770F4911105C095E09C8391E0F7
:1007E00090937A010E94A3028A818F5F8A8380E0BE
:1007F00001C084E0DF91CF910895E82FEE0FFF0B49
:10080000E75BFD4F0190F081E02D118210820C9486
:10081000980D1F93CF93DF930E94E602182F892F24
:10082000492F092E000C550B660B770B4093750171
:10083000509376016093770170937801292F220FEE
:10084000330BF901E75BFD4FC081D181D09370017B
:10085000C0936F01F901E15BFD4F2081318130933D
:100860006C0120936B019C81953019F40E94FD036B
:100870001B8310927A01DF91CF911F910895E0912F
:100880007501F0917601EE0FFF1FE75BFD4F0190C0
:10089000F081E02D90913E048381891730F40E940D
:1008A00069030E94090483E001C080E0809379011C
:1008B000089581E0809379010C940904EF92FF92EE
:1008C0000F931F93CF93DF93C1E001C0CC0F8A95A4
:1008D000EAF7209155023091560280914F02909193
:1008E000500210923C0410926A01109269013093F8
:1008F0006C0120936B0110926E0110926D01909328
:10090000700180936F018FEF9FEFDC018093710185
:1009100090937201A0937301B09374018093750159
:1009200090937601A0937701B093780110927901AA
:1009300010927A0183E00E94D70306E812E0D0E02B
:10094000F80181918F018C2319F08D2F0E94D7031C
:10095000DF5FD330A9F704E812E083E3E82E82E0FA
:10096000F82ED1E0F80181918F018C2339F0F70145
:1009700080819181FC01D6870E94F604F2E0EF0E9F
:10098000F11C82E00738180769F7DF91CF911F91BA
:100990000F91FF90EF9008950E94A40681110E948C
:1009A000C506E0916D01F0916E0180819181892BE6
:1009B00021F0809171010E948C080C94ED070E9437
:1009C000A40681110E94C506E0916D01F0916E01AF
:1009D00080819181892B21F0809171010E948C0886
:1009E0000C94D50781E08093DD020895AF92BF9209
:1009F000CF92DF92EF92FF920F931F93CF93DF93EB
:100A0000FC01A081B181AD90BC90E501AC89BD89AC
:100A1000109739F0428553856485758530E020E074
:100A200017C0D50155969C938E93549757969C93D7
:100A30008E93569715821482138212825BC012968F
:100A40008D919C9113973A2F2B2F009779F0DC0111
:100A50001A96CD90DD90ED90FC901D974C155D059C
:100A60006E057F0560F7CD01A32FB22F938382839C
:100A7000B583A483009719F0EC01FD83EC831097F4
:100A800029F01396FC93EE93129705C0D501559665
:100A9000FC93EE935497E501AE89BF891A968D9128
:100AA0009D910D90BC91A02D088919892A893B89B7
:100AB00080179107A207B30780F4041715072607CC
:100AC000370728F0481759076A077B0798F4D501BC
:100AD0005796FC93EE9356970DC0041715072607FB
:100AE000370740F4481759076A077B0718F4E501F0
:100AF000FF8BEE8BDF91CF911F910F91FF90EF90C5
:100B0000DF90CF90BF90AF900895CF93DF93DC013B
:100B1000ED91FC9111970190F081E02D84899589E8
:100B20001296CD91DC911397A817B90711F4D58BC4
:100B3000C48B86899789A817B90711F4D78BC68B00
:100B4000209731F014968D919C9115979D838C83FD
:100B500014960D90BC91A02D109721F01396DC9364
:100B6000CE93129786899789892B21F48489958958
:100B7000978B868BDF91CF910895EF92FF920F9321
:100B80001F93CF93DF93FC018091DD02882309F44A
:100B9000B5C084859585A685B7850196A11DB11D33
:100BA00084879587A687B787408151816281738149
:100BB00084179507A607B70709F0A0C04089518997
:100BC000628973894F5F5F4F6F4F7F4F848195813B
:100BD000A681B78184179507A607B70718F440E0E8
:100BE00050E0BA01408B518B628B738B1486158653
:100BF00016861786C689D789209709F47FC08A850B
:100C00009B85AC85BD85481759076A077B0709F0A6
:100C100075C0CE01DC011296ED90FC901397E114A3
:100C2000F10471F0D7011A960D911D912D913C910F
:100C30001D97401751076207730711F4C701EACFE8
:100C40002C813D812115310529F0D9011396FC92A3
:100C5000EE921297E114F10429F0D70115963C9316
:100C60002E93149724893589C217D30711F4F58A76
:100C7000E48AE114F10419F0F78AE68A04C02489B1
:100C80003589378B268B8F01FC0113821282EA8013
:100C9000FB80E881F9810280F381E02DCE01099586
:100CA0004E815F8168857985411551056105710522
:100CB00009F18A859B85AC85BD85840F951FA61F8C
:100CC000B71FF8014481558166817781481759071C
:100CD0006A077B0738F4841B950BA60BB70B0197AB
:100CE000A109B1098A879B87AC87BD87CE010E9485
:100CF000F60401C01E86E701209749F6DF91CF91E7
:100D00001F910F91FF90EF900895FC0182810C9448
:100D1000D7030E94A406809168010895809368011A
:100D20000E945E040E94F2040C9459040C94970DE6
:100D3000CF93C82F0E940603811102C00E94D40DD8
:100D40008C2FCF910C9491008091EA028130D9F0E0
:100D50008091E2029091E302A091E402B091E50259
:100D6000892B8A2B8B2B79F481E04091E6025091FC
:100D7000E7026091E8027091E902452B462B472B70
:100D800019F480E0089581E008951092EA0210922B
:100D9000E6021092E7021092E8021092E902109225
:100DA000E2021092E3021092E4021092E5028091B6
:100DB000DE029091DF02A091E002B091E102809307
:100DC000EB029093EC02A093ED02B093EE02089533
:100DD0000E94D70D8091EB029091EC02A091ED0260
:100DE000B091EE020196A11DB11D8093EB0290938C
:100DF000EC02A093ED02B093EE028091E602909196
:100E0000E702A091E802B091E9020196A11DB11D8F
:100E10008093E6029093E702A093E802B093E90280
:100E200008958091E6029091E702A091E802B091C6
:100E3000E9020097A105B10569F14091EB025091DB
:100E4000EC026091ED027091EE024150510961098E
:100E500071094093EB025093EC026093ED027093A2
:100E6000EE020197A109B1098093E6029093E7028F
:100E7000A093E802B093E9028091EB029091EC021A
:100E8000A091ED02B091EE02892B8A2B8B2B11F4ED
:100E90000C94D50D08958091E6029091E702A091FF
:100EA000E802B091E902892B8A2B8B2B89F480917F
:100EB000E2029091E302A091E402B091E502892B55
:100EC0008A2B8B2B29F40E94D70D81E08093EA02B4
:100ED00008958091EA02882321F01092EA020C948E
:100EE000D50D08950E94DB0D8091EB029091EC02EC
:100EF000A091ED02B091EE020196A11DB11D80936B
:100F0000EB029093EC02A093ED02B093EE0280917D
:100F1000E2029091E302A091E402B091E502019611
:100F2000A11DB11D8093E2029093E302A093E4021D
:100F3000B093E50208958091E2029091E302A091BE
:100F4000E402B091E5020097A105B10569F1409175
:100F5000EB025091EC026091ED027091EE02415073
:100F60005109610971094093EB025093EC026093BF
:100F7000ED027093EE020197A109B1098093E2029C
:100F80009093E302A093E402B093E5028091EB0218
:100F90009091EC02A091ED02B091EE02892B8A2B88
:100FA0008B2B11F40C94D90D08950E94A40688236C
:100FB00011F083E1089580E00895CF93C82F0E9437
:100FC000A4068C2F0E94D703C82F80917A0181112B
:100FD0000E943F048C2FCF910895CF930E94A406C6
:100FE000882311F0C3E101C0C0E0E0916D01F091F0
:100FF0006E018281815082830E94C70381E08093C9
:1010000079010E9409048C2FCF910895CF93C82FA6
:101010000E94A406E0916D01F0916E0182818150E1
:1010200082838C2F0E94D703C82F811108C00E9491
:10103000C70381E0809379010E94090407C0E09111
:101040006D01F0916E0182818F5F82838C2FCF9131
:101050000895CF930E94A406882311F0C3E101C034
:10106000C0E0809171010E944F030E943F04809173
:10107000710190917201A0917301B091740140913E
:101080007501509176016091770170917801841714
:101090009507A607B70711F40E9424038C2FCF9160
:1010A0000895CF93DF93EC010E94A406882311F0EA
:1010B00083E101C080E04091710150917201609123
:1010C000730170917401433051056105710514F489
:1010D000488303C09091CA019883DF91CF9108950E
:1010E0000F931F93CF93C82F8B010E94A4068823D0
:1010F00011F083E101C080E0EC2FEE0FFF0BE75B06
:10110000FD4F0190F081E02D94819370F801908360
:10111000CF911F910F910895880F990BFC01E75B08
:10112000FD4FA081B181ED91FC911197309769F04D
:101130001D921C922091CA01938184812283148282
:101140001382E92FF82F3097B9F70895CF93C82F5E
:101150000E94A406882311F083E101C080E0EC2FF7
:10116000F0E0EE0FFF1FE158FD4FA081B18190919B
:10117000710112969C931297E0916D01F0916E01AE
:101180002081318114963C932E931397B183A083D1
:10119000938111969C9311972C9193819695921718
:1011A00060F430E0D901A75FBC4F9C9191509C93B3
:1011B000220F331F9170292B2383CF910895CF9352
:1011C000DF93C82F0E94A406882311F0D3E101C049
:1011D000D0E0EC2FF0E0EE0FFF1FE158FD4F019043
:1011E000F081E02DA0916D01B0916E018181139687
:1011F0008C931397838194818D939C931482138293
:101200008091CA0182830E943F048D2FDF91CF918C
:101210000895DC01ED91FC9184819581DC01ED91D3
:10122000FC9109941F93CF93DF93182FEB010E9439
:10123000A406882311F083E101C080E0E12FF0E0F3
:10124000EE0FFF1FED5CFD4F0190F081E02D01904E
:10125000F081E02D0190F081E02D4081518162818B
:1012600073814C835D836E837F8344815581668166
:101270007781488359836A837B8340855185628562
:101280007385488759876A877B87DF91CF911F9144
:1012900008958F929F92AF92BF92CF92DF92EF927A
:1012A000FF920F931F93CF93C82F8B010E94A40628
:1012B000882311F083E101C080E0EC2FF0E0EE0F15
:1012C000FF1FED5CFD4F0190F081E02D9685913080
:1012D00029F542855385648575850190F081E02D5F
:1012E0000190F081E02DC088D188E288F3884C1508
:1012F0005D056E057F0540F484809580A680B780EB
:10130000480D591D6A1D7B1D4C195D096E097F0929
:10131000F801408351836283738301C085E0CF91DC
:101320001F910F91FF90EF90DF90CF90BF90AF9003
:101330009F908F9008958F929F92AF92BF92CF927D
:10134000DF92EF92FF920F931F93CF93DF93D82FEB
:101350004A015B01680179010E94A406882311F00B
:10136000C3E101C0C0E0ED2FF0E0EE0FFF1FED5C28
:10137000FD4F0190F081E02D8685811130C0A08164
:10138000B1810D90BC91A02D50964D915D916D91C4
:101390007C915397480D591D6A1D7B1D14968D91A4
:1013A0009D910D90BC91A02D84179507A607B707B6
:1013B00040F4481B590B6A0B7B0B415051096109E2
:1013C00071094287538764877587C682D782E08612
:1013D000F18681E08687CF010E94F60401C0C7E054
:1013E0008C2FDF91CF911F910F91FF90EF90DF90A5
:1013F000CF90BF90AF909F908F9008958F929F92C3
:10140000AF92BF92CF92DF92EF92FF920F931F9312
:10141000CF93DF93C82F4A015B01680179010E94D5
:10142000A406882311F0D3E101C0D0E0EC2FF0E056
:10143000EE0FFF1FED5CFD4F0190F081E02D8685E2
:1014400081110EC082869386A486B586C682D78215
:10145000E086F18681E08687CF010E94F60401C014
:10146000D7E08D2FDF91CF911F910F91FF90EF90DB
:10147000DF90CF90BF90AF909F908F9008950F9383
:101480001F93CF93DF93C82F0E94A406882311F0E7
:10149000D3E101C0D0E0EC2FF0E0EE0FFF1FED5CD8
:1014A000FD4F00811181F8018685813031F4C8013A
:1014B0000E948505F801168601C0D5E08D2FDF91C9
:1014C000CF911F910F91089561E08DE00E94530C20
:1014D00026E040E052EC61E070E08DE193E00E9494
:1014E0009C1060E08EE00E94530C6BEC71E08DE18B
:1014F00093E00E948D0E809189020C949806EF92E1
:10150000FF921F93CF93DF9310918302812F0E944C
:10151000D10061ED71E08DE193E00E94800E8EE0DC
:101520000E94790DEC010A978C3E934038F081E0DF
:1015300090E09093F8028093F70204C01092F802B2
:101540001092F70260EE71E08DE193E00E94800E50
:101550004AE050E0BE018DE193E00E94300F63EE5F
:1015600071E08DE193E00E94800E6091F70270912E
:10157000F8024AE050E08DE193E00E94370F812F9E
:101580000E94D5008091F9029091FA0205970CF51E
:10159000E091FB02F091FC02EE0FFF1FE150FD4FC6
:1015A000D183C0838091FB029091FC02019665E09B
:1015B00070E00E9404119093FC028093FB028091E2
:1015C000F9029091FA0201969093FA028093F9023F
:1015D00006C06BEE71E08DE193E00E948D0E80916C
:1015E000F3029091F402019665E070E00E9404110C
:1015F0009093F4028093F302892B09F09CC08091B0
:10160000F9029091FA02892B21F4812F0E94D100D6
:101610007BC0E091FD02F091FE02EE0FFF1FE15052
:10162000FD4FE080F180E091FD02F091FE02EE0FAF
:10163000FF1FE150FD4FC081D18125E030E0809156
:10164000F9029091FA021816190644F5E091FD028C
:10165000F091FE02EE0FFF1FE150FD4F808191815E
:101660008E159F050CF47C01C817D9070CF4EC010A
:101670008091FD029091FE020196B9010E94041131
:101680009093FE028093FD028091F9029091FA02FC
:1016900001979093FA028093F902D1CF63E072E050
:1016A0008DE193E00E94800E4AE050E0BE018DE1A2
:1016B00093E00E94300F66E072E08DE193E00E94BB
:1016C000800E4AE050E0B7018DE193E00E94300FB8
:1016D0006AE072E08DE193E00E94800ECE19DF098E
:1016E0004AE050E0BE018DE193E00E94370F812F68
:1016F0000E94D100C53FD1403CF081E090E0909342
:10170000F6028093F50204C01092F6021092F502E0
:10171000812F0E94D50063E172E08DE193E00E9489
:10172000800E6091F5027091F6024AE050E08DE182
:1017300093E00E94370FDF91CF911F91FF90EF90C0
:101740000C94B900EF92FF921F93CF93DF936AE15D
:1017500072E08DE193E00E94800E10918302812F50
:101760000E94D100E090F702F090F802C091F502DB
:10177000D091F602812F0E94D500EA94EF2839F427
:1017800082E090E09093F0028093EF020CC0C130B1
:10179000D10529F4D093F002C093EF0204C0109257
:1017A000F0021092EF028091EF029091F0028130EE
:1017B000910531F08230910519F1892B79F526C018
:1017C0008091F1029091F20283709927892B51F454
:1017D0008DE00E94BE0C61E0892B09F060E08DE095
:1017E0000E948F0C8091F1029091F202019664E0C8
:1017F00070E00E9404119093F2028093F1020EC0F7
:101800008DE00E94BE0C61E0892B09F060E08DE064
:101810000E948F0C1092F2021092F10269E272E0C3
:101820008DE193E00E94800E6091EF027091F002D2
:101830004AE050E08DE193E00E94370FDF91CF91B5
:101840001F91FF90EF900C94B90083EA91E00C9403
:101850002A010895833081F028F4813099F0823094
:10186000A1F008958730A9F08830B9F08430D1F420
:10187000809180008F7D03C0809180008F7780935E
:101880008000089584B58F7702C084B58F7D84BDB4
:1018900008958091B0008F7703C08091B0008F7D54
:1018A0008093B0000895CF93DF9390E0FC01E4585B
:1018B000FF4F2491FC01E057FF4F8491882361F191
:1018C00090E0880F991FFC01E854FF4FC591D49117
:1018D000FC01E255FF4FA591B491611109C09FB77A
:1018E000F8948881209582238883EC912E230BC065
:1018F000623061F49FB7F8948881322F309583234A
:101900008883EC912E2B2C939FBF06C08FB7F89441
:10191000E8812E2B28838FBFDF91CF9108951F93ED
:10192000CF93DF93282F30E0F901E859FF4F8491DE
:10193000F901E458FF4FD491F901E057FF4FC491EA
:10194000CC23C1F0162F81110E942A0CEC2FF0E05D
:10195000EE0FFF1FE255FF4FA591B4919FB7F8948A
:10196000111104C08C91D095D82302C0EC91DE2BCC
:10197000DC939FBFDF91CF911F910895CF93DF93A9
:10198000282F30E0F901E859FF4F8491F901E4581C
:10199000FF4FD491F901E057FF4FC491CC2391F050
:1019A00081110E942A0CEC2FF0E0EE0FFF1FEC5586
:1019B000FF4FA591B491EC91ED2381E090E021F4EB
:1019C00080E002C080E090E0DF91CF9108951F9207
:1019D0000F920FB60F9211242F933F934F935F9363
:1019E0006F937F938F939F93AF93BF93EF93FF93E7
:1019F0008091140390911503A0911603B0911703E1
:101A00003091130323E0230F2D3720F40196A11DFD
:101A1000B11D05C026E8230F0296A11DB11D20931C
:101A200013038093140390931503A0931603B093AC
:101A300017038091180390911903A0911A03B09194
:101A40001B030196A11DB11D8093180390931903E8
:101A5000A0931A03B0931B030E94250CFF91EF91F2
:101A6000BF91AF919F918F917F916F915F914F91B6
:101A70003F912F910F900FBE0F901F90189584B536
:101A8000826084BD84B5816084BD85B5826085BD7A
:101A900085B5816085BDEEE6F0E080818160808360
:101AA000E1E8F0E010828081826080838081816043
:101AB0008083E0E8F0E0808181608083E1EBF0E00A
:101AC000808184608083E0EBF0E0808181608083AE
:101AD000EAE7F0E080818460808380818260808397
:101AE0008081816080838081806880831092C100C2
:101AF00008958E3008F08E502091C50190E4299F02
:101B0000900111248770822B80937C0080917A0051
:101B1000806480937A0080917A0086FDFCCF80916A
:101B200078002091790090E0922B0895FFCFFFCFAD
:101B3000CF93DF93880F990BFC01E15BFD4FC081D0
:101B4000D181AC81BD8111978A819B81A80FB91F7A
:101B50002D85CD010197FD013297223019F421EB3B
:101B600030E002C02DEC30E02C93DC013C939E81F0
:101B70008F819083DF018E93CF0107971E928A1782
:101B80009B07E1F780E8DF0118978C93CF0144971A
:101B90001E928A179B07E1F7A881B9817597ED938B
:101BA000FC93DF91CF910895089578940895F89467
:101BB000089578940895F894089508950E943F0D2B
:101BC0000E94DD0D0E94290C0E94640A80911C0372
:101BD0000E94980680E090E00895809188028093AA
:101BE0001C03089508951F920F920FB60F921124AF
:101BF0002F933F934F935F936F937F938F939F9315
:101C0000AF93BF93EF93FF93E091C601F091C701AB
:101C10000995FF91EF91BF91AF919F918F917F9126
:101C20006F915F914F913F912F910F900FBE0F9049
:101C30001F9018951F920F920FB60F9211242F9399
:101C40003F934F935F936F937F938F939F93AF9344
:101C5000BF93EF93FF93E091C801F091C9010995FB
:101C6000FF91EF91BF91AF919F918F917F916F9174
:101C70005F914F913F912F910F900FBE0F901F904A
:101C80001895CF92DF92EF92FF920F931F93CF930D
:101C9000DF936C017A018B01C0E0D0E0CE15DF0547
:101CA00081F0D8016D918D01D601ED91FC910190EB
:101CB000F081E02DC6010995892B11F02196EECF18
:101CC0007E01C701DF91CF911F910F91FF90EF909F
:101CD000DF90CF9008956115710579F0FB010190B7
:101CE0000020E9F73197AF01461B570BDC01ED915E
:101CF000FC910280F381E02D099480E090E008954A
:101D00000C946B0EDC01ED91FC910190F081E02DC3
:101D100009946AEB72E00C946B0E0F931F93CF93B0
:101D2000DF93EC010E946B0E8C01CE010E94890EA4
:101D3000800F911FDF91CF911F910F9108958F9286
:101D40009F92AF92BF92EF92FF920F931F93CF9308
:101D5000DF93CDB7DEB7A1970FB6F894DEBF0FBE05
:101D6000CDBF7C01FA01CB0119A2223008F42AE090
:101D70008E010F5D1F4F822E912CA12CB12CBF0123
:101D8000A50194010E941811F901CA01015011091D
:101D90006A3014F4605D01C0695CD8016C93232B38
:101DA000242B252B61F7B801C7010E946B0EA19669
:101DB0000FB6F894DEBF0FBECDBFDF91CF911F915C
:101DC0000F91FF90EF90BF90AF909F908F900895EC
:101DD000CF92DF92EF92FF920F931F93CF93DF93F7
:101DE0002115310581F4DC01ED91FC910190F08128
:101DF000E02D642FDF91CF911F910F91FF90EF9015
:101E0000DF90CF9009942A30310501F577FF1DC08E
:101E10006A017B01EC016DE20E94820E8C01442775
:101E20005527BA014C195D096E097F092AE0CE01D8
:101E30000E949F0E800F911FDF91CF911F910F91F4
:101E4000FF90EF90DF90CF9008952AE0DF91CF913F
:101E50001F910F91FF90EF90DF90CF900C949F0E09
:101E60009A01AB01770F660B770B0C94E80E0F937A
:101E70001F93CF93DF93EC010E94300F8C01CE01B2
:101E80000E94890E800F911FDF91CF911F910F91BA
:101E900008951F920F920FB60F9211242F938F93D4
:101EA0009F93EF93FF93E0912D03F0912E03808198
:101EB000E0913303F091340382FD12C09081809150
:101EC00036038F5F8F7320913703821751F0E091B3
:101ED0003603F0E0E35EFC4F958F8093360301C03C
:101EE0008081FF91EF919F918F912F910F900FBE65
:101EF0000F901F9018951F920F920FB60F921124FA
:101F00002F933F934F935F936F937F938F939F9301
:101F1000AF93BF93EF93FF938DE193E00E940B107B
:101F2000FF91EF91BF91AF919F918F917F916F91B1
:101F30005F914F913F912F910F900FBE0F901F9087
:101F40001895EDE1F3E01382128288EE93E0A0E0B1
:101F5000B0E084839583A683B7838DEC92E0918370
:101F6000808385EC90E09587848784EC90E0978768
:101F7000868780EC90E0918B808B81EC90E0938B56
:101F8000828B82EC90E0958B848B86EC90E0978B33
:101F9000868B118E128E138E148E0895FC01918DF6
:101FA000228D892F90E0805C9F4F821B91098F7357
:101FB00099270895FC01918D828D981731F0828DBB
:101FC000E80FF11D858D90E008958FEF9FEF089544
:101FD000FC01918D828D981761F0828DDF01A80F31
:101FE000B11D5D968C91928D9F5F9F73928F90E053
:101FF00008958FEF9FEF0895FC01538D448D252F99
:1020000030E0842F90E0821B930B541710F0CF9692
:10201000089501970895FC01848DDF01A80FB11D7B
:10202000A35ABF4F2C91848D90E001968F7399270E
:10203000848FA689B7892C93A089B1898C918370EC
:1020400080648C93938D848D981306C00288F389E5
:10205000E02D80818F7D80830895EF92FF920F9312
:102060001F93CF93DF93EC0181E0888F9B8D8C8D44
:10207000981305C0E889F989808185FD26C0F62E70
:102080000B8D10E00F5F1F4F0F731127E02E8C8D0B
:10209000E8120CC00FB607FCFACFE889F9898081F5
:1020A00085FFF5CFCE010E940B10F1CF8B8DFE0185
:1020B000E80FF11DE35AFF4FF0829FB7F8940B8FA2
:1020C000EA89FB89808180620AC09FB7F894EE8913
:1020D000FF896083E889F9898081837080648083C7
:1020E0009FBF81E090E0DF91CF911F910F91FF9012
:1020F000EF900895CF93DF93EC01888D8823C9F08A
:10210000EA89FB89808185FD05C0A889B9898C9100
:1021100086FD0FC00FB607FCF5CF808185FFF2CF9B
:10212000A889B9898C9185FFEDCFCE010E940B1053
:10213000E7CFDF91CF910895CF92DF92EF92FF9298
:102140001F93CF93DF93EC016A017B01122FE88983
:10215000F98982E080834115514E61057105B1F026
:1021600060E079E08DE390E0A70196010E941811EC
:10217000DA01C9010197A109B109B695A79597950B
:1021800087959C01211580E13807A8F0E889F98935
:10219000108260E874E88EE190E0A70196010E9449
:1021A0001811DA01C9010197A109B109B695A795DE
:1021B000979587959C01EC85FD853083EE85FF859D
:1021C0002083188EEC89FD891083EA89FB89808140
:1021D00080618083EA89FB89808188608083EA89C5
:1021E000FB89808180688083EA89FB8980818F7D7B
:1021F0008083DF91CF911F91FF90EF90DF90CF9080
:102200000895F8940C94541197FB072E16F400943B
:1022100007D077FD09D00E943A1107FC05D03EF4A3
:10222000909581959F4F0895709561957F4F089582
:10223000A1E21A2EAA1BBB1BFD010DC0AA1FBB1FCA
:10224000EE1FFF1FA217B307E407F50720F0A21B3C
:10225000B30BE40BF50B661F771F881F991F1A94A9
:1022600069F760957095809590959B01AC01BD01D3
:10227000CF010895AA1BBB1B51E107C0AA1FBB1FBA
:10228000A617B70710F0A61BB70B881F991F5A9502
:10229000A9F780959095BC01CD010895EE0FFF1F21
:0C22A0000590F491E02D0994F894FFCF14
:1022AC000000000000000000000000000000000022
:1022BC000000000000000000000000000000000012
:1022CC000000000000000000000000000000000002
:1022DC0000000000000000000000000000000000F2
:1022EC0000000000000000000000000000000000E2
:1022FC0000000000000000000000000000000000D2
:10230C000000000000000000FF0000710200000E41
:10231C0003FFFFFFFFFFFFFFFF000037020000007D
:10232C00007A0000007A0000000240020000000069
:10233C00620000000A00000002000000020400001D
:10234C0000010001000000FFFF0000010000000080
:10235C0000000000000000000000000300FF00006F
:10236C000300FF000001F20DF20DFF537461727453
:10237C00005461736B572072756E6E696E673A000C
:10238C00583D00206572726F723D00517565756520
:10239C00206F766572666C6F7720696E205461735E
:1023AC006B57004D3D00204E3D0020204D2D4E2002
:1023BC003D2000616C61726D3D005461736B562061
:1023CC0072756E6E696E673A004C45445F6D6F6452
:1023DC00653D008A017B01A30109093D02850600C8
:1023EC00A301090946028506019E0199010E0363AA
:1023FC000255027102BA03BC0380007F0A0000017F
:10240C00020100180598048000A20B0000000101D5
:10241C0000460448045000960D000002000100C064
:10242C0001BB01000101000100009B076907720755
:10243C004B07DF04E806CC041107ED078E06960661
:10244C00A608DD07DF0806081209510849098906A4
:10245C009B092908FE093F0A70080D0A006E616E7F
:10246C0000696E66006F766600000000002D10415A
:0C247C000EFC0F7A10CE0FE80FDA0F00F4
:00000001FF
