:100000000C9463000C94F00D0C94170E0C948B0060
:100010000C948B000C948B000C948B000C948B0034
:100020000C948B000C948B000C948B000C948B0024
:100030000C948B000C948B000C948B000C948B0014
:100040000C94E40C0C948B000C94460F0C94780FD9
:100050000C948B000C948B000C948B000C948B00F4
:100060000C948B000C948B0000000008000201002F
:100070000003040700000000000000000102040863
:100080001020408001020408102001020408102002
:10009000040404040404040402020202020203032E
:1000A00003030303000000002300260029000000D2
:1000B0000000250028002B0000000000240027007D
:1000C0002A00EA0D9E0F11241FBECFEFD8E0DEBF3D
:1000D000CDBF13E0A0E0B1E0E6EAF2E202C0059095
:1000E0000D92AE31B107D9F725E0AEE1B3E001C022
:1000F0001D92AF3DB207E1F710E0C3E6D0E004C0C7
:100100002197FE010E944B11C136D107C9F70E9409
:10011000DB0D0C94FE100C940000E2E10E94320111
:100120000895E9E00E9432010895EAE00E94320158
:100130000895E1E00E9432010895E3E00E94320157
:100140000895E7E00E9432010895E5E00E9432013F
:100150000895E0E00E9432010895E2E00E94320139
:100160000895E4E00E9432010895ECE00E9432011B
:100170000895E8E00E9432010895EEE00E94320105
:100180000895E4E10E9432010895E0E10E94320105
:100190000895E7E10E9432010895E6E00E943201ED
:1001A0000895EBE00E9432010895EDE00E943201D3
:1001B0000895EFE00E9432010895E1E10E943201CA
:1001C0000895E3E10E9432010895E5E10E943201C1
:1001D0000895E6E10E943201089521968A929A924A
:1001E000AA92BA92CA92DA92EA92FA920A931A936D
:1001F0002197E0916901F0916A010080F181E02D81
:10020000C083D1830895C0916B01D0916C01E881C6
:10021000F981C081D181219619910991F990E990D4
:10022000D990C990B990A9909990899021970895F3
:100230002F903F90E7E6F1E0CDB7DEB7EDBFFEBF10
:100240003F922F9208952F903F90CDBFDEBF3F92F7
:100250002F920895E0E80E9432010895E0E40E94A0
:10026000320108952F923F924F925F926F927F9248
:100270002FB62F92CF93DF937E2EF894E09100015A
:10028000EF5FE0930001E13011F40E941801E0E01B
:10029000E0937901E72DE07849F00E94BD05F091E7
:1002A0007A01F17071F00E943F040BC0E72DEC3130
:1002B00040F4EE0FF0E0E453FD4F0190F081E02DAB
:1002C0000995F0917901EF2FE17059F0F27011F07A
:1002D0000E94ED008F938F2F0E9487038F910E94C1
:1002E000030120910001215020930001222311F4E9
:1002F0000E942301DF91CF912F902FBE7F906F90AE
:100300005F904F903F902F900895CF92DF92EF92A1
:10031000FF920F931F93DC01EC91DB012C918E2F48
:100320008170C82ED12CE12CF12C8E2F8F7090E093
:10033000A0E0B0E0B695A79597958795DC01A75BFF
:10034000BC4F8C91C81AD108E108F108EE70422F19
:10035000417050E060E070E0822F8F7090E0A0E08C
:10036000B0E0B695A79597958795DC01A75BBC4F44
:100370008C91481B510961097109822F8E70970178
:10038000860101701127222733270E2B4170552734
:1003900066277727482B81E090E00417150726078A
:1003A000370710F080E090E01F910F91FF90EF90E1
:1003B000DF90CF9008958F929F92AF92BF92EF926D
:1003C000FF920F931F93CF93DF937C014A015B0150
:1003D000B694A794979487944230510561057105AE
:1003E000E0F0440F551F8701040F151FE401CC0FE7
:1003F000DD1FCE0DDF1DB801CE010E948501892BC6
:1004000061F0F801908181812881398131832083D5
:1004100098838983B501A401DBCFDF91CF911F9130
:100420000F91FF90EF90BF90AF909F908F900895A5
:100430004F925F926F927F928F929F92AF92BF92F4
:10044000CF92DF92EF92FF920F931F93CF93DF93A0
:1004500000D000D000D0CDB7DEB78C016A017B019F
:10046000DC018C91282F30E040E050E029833A8372
:100470004B835C8346015701880C991CAA1CBB1C4A
:1004800029813A814B815C81281539054A055B0534
:1004900008F442C0240135013FEF431A530A630AAE
:1004A000730A89819A81AB81BC8184159505A60563
:1004B000B70580F0B201660F771F600F711FC4018E
:1004C000880F991F800F911F0E948501892B11F0C1
:1004D000530142013401660C771C600E711ECC0C76
:1004E000DD1CD801AC0DBD1DBE83AD83B301CD01B4
:1004F0000E948501892B81F0ED81FE8190818181AF
:10050000D3012D913C911197318320839C931196B7
:100510008C9375016401AECF26960FB6F894DEBFBA
:100520000FBECDBFDF91CF911F910F91FF90EF9044
:10053000DF90CF90BF90AF909F908F907F906F9003
:100540005F904F900895EDE7F4E040814F5F408366
:1005500050E060E070E0E82FEE0FFF0BE158FD4F38
:100560000190F081E02D238530E0F901E75BFC4F3D
:10057000908191509083FA01EE0FFF1FE358FB4FDB
:10058000220F331F9170292B208381838DE794E004
:100590000C94DB01EDE7F4E040814F5F408350E0D5
:1005A00060E070E0E82FEE0FFF0BE958FD4F01907F
:1005B000F081E02D9381FA01EE0FFF1FE358FB4F0E
:1005C000908381838DE794E00C94DB01CF93DF93DC
:1005D000EDE7F4E080819FEF980F9083D281C38193
:1005E00090E0880F991FDC01A358BB4F8D919C911F
:1005F0009383828341E050E060E070E0CF010E948D
:1006000018028D2F9C2FDF91CF91089580911E03AA
:10061000811114C08091710190917201A0917301B8
:10062000B09174018F3F2FEF9207A207B20741F0FC
:100630000397A105B10534F481E0089584E008959D
:1006400080E0089582E00895880F990BFC01E1583D
:10065000FD4F0190F081E02D0084F185E02D309771
:10066000E9F0228121111AC021E02283DC01A9587E
:10067000BD4F0D90BC91A02D13968C911397818343
:10068000808190E0FC01E75BFC4F208121502083BA
:10069000880F991F2170822B13968C930895880FD1
:1006A000990BFC01E158FD4F0190F081E02D008491
:1006B000F185E02D309761F02281213049F41282DA
:1006C0002181FC01E958FD4F0190F081E02D238349
:1006D00008958091750190917601A0917701B09174
:1006E0007801409171015091720160917301709194
:1006F0007401481759076A077B0741F0E0916F01C1
:10070000F091700121E024830C94CA020895CF93E4
:10071000DF93882391F0C0916901D0916A01E09143
:100720006D01F0916E018481833049F081E0848312
:10073000809171010E94CA0202C0C0E0D0E0E09145
:100740006F01F0917001F0936E01E0936D01809163
:100750006B0190916C0190936A0180936901809183
:100760007501309176012091770190917801809305
:10077000710130937201209373019093740192E0A0
:1007800094830E942403CE01DF91CF91089580913C
:1007900071010E944F03E0916D01F0916E01828121
:1007A000882319F085E08483089514820895CF93F7
:1007B000DF93282F220F330BF901E958FD4FC08139
:1007C000D1819A81F901E158FD4F0190F081E02D2E
:1007D0002485921770F4911105C095E09C8391E0F7
:1007E00090937A010E94A3028A818F5F8A8380E0BE
:1007F00001C084E0DF91CF910895E82FEE0FFF0B49
:10080000E958FD4F0190F081E02D118210820C9487
:10081000950D1F93CF93DF930E94E602182F892F27
:10082000492F092E000C550B660B770B4093750171
:10083000509376016093770170937801292F220FEE
:10084000330BF901E958FD4FC081D181D09370017C
:10085000C0936F01F901E158FD4F20813181309340
:100860006C0120936B019C81953019F40E94FD036B
:100870001B8310927A01DF91CF911F910895E0912F
:100880007501F0917601EE0FFF1FE958FD4F0190C1
:10089000F081E02D90917F048381891730F40E94CC
:1008A00069030E94090483E001C080E0809379011C
:1008B000089581E0809379010C940904EF92FF92EE
:1008C0000F931F93CF93DF93C1E001C0CC0F8A95A4
:1008D000EAF7209185023091860280917D02909105
:1008E0007E0210927D0410926A0110926901309389
:1008F0006C0120936B0110926E0110926D01909328
:10090000700180936F018FEF9FEFDC018093710185
:1009100090937201A0937301B09374018093750159
:1009200090937601A0937701B093780110927901AA
:1009300010927A0183E00E94D70307EC12E0D0E026
:10094000F80181918F018C2319F08D2F0E94D7031C
:10095000DF5FD330A9F704EC12E086E5E82E82E0F1
:10096000F82ED1E0F80181918F018C2339F0F70145
:1009700080819181FC01D6870E94F604F2E0EF0E9F
:10098000F11C82E0073C180769F7DF91CF911F91B6
:100990000F91FF90EF9008950E94A40681110E948C
:1009A000C506E0916D01F0916E0180819181892BE6
:1009B00021F0809171010E948C080C94ED070E9437
:1009C000A40681110E94C506E0916D01F0916E01AF
:1009D00080819181892B21F0809171010E948C0886
:1009E0000C94D50781E080931F030895AF92BF92C6
:1009F000CF92DF92EF92FF920F931F93CF93DF93EB
:100A0000FC01A081B181AD90BC90E501AC89BD89AC
:100A1000109739F0428553856485758530E020E074
:100A200017C0D50155969C938E93549757969C93D7
:100A30008E93569715821482138212825BC012968F
:100A40008D919C9113973A2F2B2F009779F0DC0111
:100A50001A96CD90DD90ED90FC901D974C155D059C
:100A60006E057F0560F7CD01A32FB22F938382839C
:100A7000B583A483009719F0EC01FD83EC831097F4
:100A800029F01396FC93EE93129705C0D501559665
:100A9000FC93EE935497E501AE89BF891A968D9128
:100AA0009D910D90BC91A02D088919892A893B89B7
:100AB00080179107A207B30780F4041715072607CC
:100AC000370728F0481759076A077B0798F4D501BC
:100AD0005796FC93EE9356970DC0041715072607FB
:100AE000370740F4481759076A077B0718F4E501F0
:100AF000FF8BEE8BDF91CF911F910F91FF90EF90C5
:100B0000DF90CF90BF90AF900895CF93DF93DC013B
:100B1000ED91FC9111970190F081E02D84899589E8
:100B20001296CD91DC911397A817B90711F4D58BC4
:100B3000C48B86899789A817B90711F4D78BC68B00
:100B4000209731F014968D919C9115979D838C83FD
:100B500014960D90BC91A02D109721F01396DC9364
:100B6000CE93129786899789892B21F48489958958
:100B7000978B868BDF91CF910895EF92FF920F9321
:100B80001F93CF93DF93FC0180911F03882309F407
:100B9000B5C084859585A685B7850196A11DB11D33
:100BA00084879587A687B787408151816281738149
:100BB00084179507A607B70709F0A0C04089518997
:100BC000628973894F5F5F4F6F4F7F4F848195813B
:100BD000A681B78184179507A607B70718F440E0E8
:100BE00050E0BA01408B518B628B738B1486158653
:100BF00016861786C689D789209709F47FC08A850B
:100C00009B85AC85BD85481759076A077B0709F0A6
:100C100075C0CE01DC011296ED90FC901397E114A3
:100C2000F10471F0D7011A960D911D912D913C910F
:100C30001D97401751076207730711F4C701EACFE8
:100C40002C813D812115310529F0D9011396FC92A3
:100C5000EE921297E114F10429F0D70115963C9316
:100C60002E93149724893589C217D30711F4F58A76
:100C7000E48AE114F10419F0F78AE68A04C02489B1
:100C80003589378B268B8F01FC0113821282EA8013
:100C9000FB80E881F9810280F381E02DCE01099586
:100CA0004E815F8168857985411551056105710522
:100CB00009F18A859B85AC85BD85840F951FA61F8C
:100CC000B71FF8014481558166817781481759071C
:100CD0006A077B0738F4841B950BA60BB70B0197AB
:100CE000A109B1098A879B87AC87BD87CE010E9485
:100CF000F60401C01E86E701209749F6DF91CF91E7
:100D00001F910F91FF90EF900895FC0182810C9448
:100D1000D7030E94A406809168010895809368011A
:100D20000E945E040E94F2040C9459040C94940DE9
:100D3000CF93C82F0E940603811102C00E94D10DDB
:100D40008C2FCF910C94910080912C038130D9F09D
:100D50008091240390912503A0912603B09127034D
:100D6000892B8A2B8B2B79F481E0409128035091B9
:100D7000290360912A0370912B03452B462B472BA7
:100D800019F480E0089581E0089510922C031092E8
:100D900028031092290310922A0310922B03109219
:100DA00024031092250310922603109227038091AA
:100DB000200390912103A0912203B09123038093FB
:100DC0002D0390932E03A0932F03B0933003089527
:100DD0000E94D40D80912D0390912E03A0912F039A
:100DE000B09130030196A11DB11D80932D03909306
:100DF0002E03A0932F03B09330038091280390918A
:100E00002903A0912A03B0912B030196A11DB11DC6
:100E10008093280390932903A0932A03B0932B0374
:100E200008958091280390912903A0912A03B091FD
:100E30002B030097A105B10569F140912D03509155
:100E40002E0360912F0370913003415051096109C5
:100E5000710940932D0350932E0360932F037093D9
:100E600030030197A109B1098093280390932903C6
:100E7000A0932A03B0932B0380912D0390912E030E
:100E8000A0912F03B0913003892B8A2B8B2B11F467
:100E90000C94D20D08958091280390912903A0917C
:100EA0002A03B0912B03892B8A2B8B2B89F48091F9
:100EB000240390912503A0912603B0912703892B49
:100EC0008A2B8B2B29F40E94D40D81E080932C0374
:100ED000089580912C03882321F010922C030C9408
:100EE000D20D08950E94D80D80912D0390912E036C
:100EF000A0912F03B09130030196A11DB11D8093E5
:100F00002D0390932E03A0932F03B0933003809171
:100F1000240390912503A0912603B0912703019605
:100F2000A11DB11D8093240390932503A093260354
:100F3000B093270308958091240390912503A091F5
:100F40002603B09127030097A105B10569F14091EF
:100F50002D0350912E0360912F0370913003415067
:100F600051096109710940932D0350932E03609339
:100F70002F03709330030197A109B10980932403D3
:100F800090932503A0932603B093270380912D030C
:100F900090912E03A0912F03B0913003892B8A2BBF
:100FA0008B2B11F40C94D60D08950E94A40688236F
:100FB00011F083E1089580E00895CF93C82F0E9437
:100FC000A4068C2F0E94D703C82F80917A0181112B
:100FD0000E943F048C2FCF910895CF930E94A406C6
:100FE000882311F0C3E101C0C0E0E0916D01F091F0
:100FF0006E018281815082830E94C70381E08093C9
:1010000079010E9409048C2FCF910895CF93C82FA6
:101010000E94A406E0916D01F0916E0182818150E1
:1010200082838C2F0E94D703C82F811108C00E9491
:10103000C70381E0809379010E94090407C0E09111
:101040006D01F0916E0182818F5F82838C2FCF9131
:101050000895CF930E94A406882311F0C3E101C034
:10106000C0E0809171010E944F030E943F04809173
:10107000710190917201A0917301B091740140913E
:101080007501509176016091770170917801841714
:101090009507A607B70711F40E9424038C2FCF9160
:1010A0000895CF93DF93EC010E94A406882311F0EA
:1010B00083E101C080E04091710150917201609123
:1010C000730170917401433051056105710514F489
:1010D000488303C09091DE019883DF91CF910895FA
:1010E0000F931F93CF93C82F8B010E94A4068823D0
:1010F00011F083E101C080E0EC2FEE0FFF0BE95807
:10110000FD4F0190F081E02D94819370F801908360
:10111000CF911F910F910895880F990BFC01E95809
:10112000FD4FA081B181ED91FC911197309769F04D
:101130001D921C922091DE0193818481228314826E
:101140001382E92FF82F3097B9F70895CF93C82F5E
:101150000E94A406882311F083E101C080E0EC2FF7
:10116000F0E0EE0FFF1FE154FD4FA081B18190919F
:10117000710112969C931297E0916D01F0916E01AE
:101180002081318114963C932E931397B183A083D1
:10119000938111969C9311972C9193819695921718
:1011A00060F430E0D901A75BBC4F9C9191509C93B7
:1011B000220F331F9170292B2383CF910895CF9352
:1011C000DF93C82F0E94A406882311F0D3E101C049
:1011D000D0E0EC2FF0E0EE0FFF1FE154FD4F019047
:1011E000F081E02DA0916D01B0916E018181139687
:1011F0008C931397838194818D939C931482138293
:101200008091DE0182830E943F048D2FDF91CF9178
:101210000895DC01ED91FC9184819581DC01ED91D3
:10122000FC9109941F93CF93DF93182FEB010E9439
:10123000A406882311F083E101C080E0E12FF0E0F3
:10124000EE0FFF1FEA5AFD4F0190F081E02D019053
:10125000F081E02D0190F081E02D4081518162818B
:1012600073814C835D836E837F8344815581668166
:101270007781488359836A837B8340855185628562
:101280007385488759876A877B87DF91CF911F9144
:1012900008958F929F92AF92BF92CF92DF92EF927A
:1012A000FF920F931F93CF93C82F8B010E94A40628
:1012B000882311F083E101C080E0EC2FF0E0EE0F15
:1012C000FF1FEA5AFD4F0190F081E02D9685913085
:1012D00029F542855385648575850190F081E02D5F
:1012E0000190F081E02DC088D188E288F3884C1508
:1012F0005D056E057F0540F484809580A680B780EB
:10130000480D591D6A1D7B1D4C195D096E097F0929
:10131000F801408351836283738301C085E0CF91DC
:101320001F910F91FF90EF90DF90CF90BF90AF9003
:101330009F908F9008958F929F92AF92BF92CF927D
:10134000DF92EF92FF920F931F93CF93DF93D82FEB
:101350004A015B01680179010E94A406882311F00B
:10136000C3E101C0C0E0ED2FF0E0EE0FFF1FEA5A2D
:10137000FD4F0190F081E02D8685811130C0A08164
:10138000B1810D90BC91A02D50964D915D916D91C4
:101390007C915397480D591D6A1D7B1D14968D91A4
:1013A0009D910D90BC91A02D84179507A607B707B6
:1013B00040F4481B590B6A0B7B0B415051096109E2
:1013C00071094287538764877587C682D782E08612
:1013D000F18681E08687CF010E94F60401C0C7E054
:1013E0008C2FDF91CF911F910F91FF90EF90DF90A5
:1013F000CF90BF90AF909F908F9008958F929F92C3
:10140000AF92BF92CF92DF92EF92FF920F931F9312
:10141000CF93DF93C82F4A015B01680179010E94D5
:10142000A406882311F0D3E101C0D0E0EC2FF0E056
:10143000EE0FFF1FEA5AFD4F0190F081E02D8685E7
:1014400081110EC082869386A486B586C682D78215
:10145000E086F18681E08687CF010E94F60401C014
:10146000D7E08D2FDF91CF911F910F91FF90EF90DB
:10147000DF90CF90BF90AF909F908F9008950F9383
:101480001F93CF93DF93C82F0E94A406882311F0E7
:10149000D3E101C0D0E0EC2FF0E0EE0FFF1FEA5ADD
:1014A000FD4F00811181F8018685813031F4C8013A
:1014B0000E948505F801168601C0D5E08D2FDF91C9
:1014C000CF911F910F91089561E08DE00E94500C23
:1014D00026E040E052EC61E070E08EE593E00E948F
:1014E000991060E08EE00E94500C6FED71E08EE587
:1014F00093E00E948A0E8091CB020C9498061F9371
:10150000CF93DF931091C302812F0E94D10065EE2B
:1015100071E08EE593E00E947D0E8EE00E94760DD4
:10152000EC010A978C3E934038F081E090E0909374
:1015300038038093370304C01092380310923703A6
:1015400064EF71E08EE593E00E947D0E4AE050E08A
:10155000BE018EE593E00E942D0F67EF71E08EE5EE
:1015600093E00E947D0E60913703709138034AE04A
:1015700050E08EE593E00E94340F80913903909102
:101580003A0305970CF5E0913B03F0913C03EE0F15
:10159000FF1FE15CFC4FD183C08380913B0390919E
:1015A0003C03019665E070E00E94011190933C03BA
:1015B00080933B038091390390913A030196909375
:1015C0003A038093390306C06FEF71E08EE593E034
:1015D0000E948A0E812F0E94D500DF91CF911F912A
:1015E0000C94B900FF920F931F93CF93DF93F09069
:1015F000C3028F2D0E94D10067E172E08EE593E077
:101600000E947D0E8091390390913A03892B09F451
:1016100078C0E0913D03F0913E03EE0FFF1FE15CC7
:10162000FC4F00811181E0913D03F0913E03EE0FEC
:10163000FF1FE15CFC4FC081D18125E030E080914B
:10164000390390913A031816190644F5E0913D03C9
:10165000F0913E03EE0FFF1FE15CFC4F8081918112
:10166000801791070CF48C01C817D9070CF4EC0112
:1016700080913D0390913E030196B9010E940111B2
:1016800090933E0380933D038091390390913A03F8
:10169000019790933A0380933903D1CF66E272E0C9
:1016A0008EE593E00E947D0E4AE050E0BE018EE59B
:1016B00093E00E942D0F69E272E08EE593E00E94B4
:1016C0007D0E4AE050E0B8018EE593E00E942D0FB8
:1016D0006DE272E08EE593E00E947D0EC01BD10B9F
:1016E0004AE050E0BE018EE593E00E94340FC53F12
:1016F000D1403CF081E090E0909336038093350335
:1017000004C0109236031092350366E372E08EE552
:1017100093E00E947D0E60913503709136034AE09C
:1017200050E08EE593E00E94340F8F2D0E94D5008B
:10173000DF91CF911F910F91FF900C94B900EF9220
:10174000FF921F93CF93DF936DE372E08EE593E0FA
:101750000E947D0E1091C302812F0E94D100E09063
:101760003703F0903803C0913503D0913603812FB1
:101770000E94D500EA94EF2839F482E090E090933B
:101780003203809331030CC0C130D10529F4D093CA
:101790003203C093310304C010923203109231031C
:1017A00080913103909132038130910531F0823084
:1017B000910519F1892B79F526C080913303909119
:1017C000340383709927892B51F48DE00E94BB0C60
:1017D00061E0892B09F060E08DE00E948C0C809123
:1017E000330390913403019664E070E00E9401118C
:1017F00090933403809333030EC08DE00E94BB0CA2
:1018000061E0892B09F060E08DE00E948C0C109261
:101810003403109233036CE472E08EE593E00E948F
:101820007D0E60913103709132034AE050E08EE505
:1018300093E00E94340FDF91CF911F91FF90EF90C2
:101840000C94B90087EB91E00C942A010895833041
:1018500081F028F4813099F08230A1F0089587302A
:10186000A9F08830B9F08430D1F4809180008F7D68
:1018700003C0809180008F7780938000089584B5A5
:101880008F7702C084B58F7D84BD08958091B000AC
:101890008F7703C08091B0008F7D8093B000089552
:1018A000CF93DF9390E0FC01E458FF4F2491FC01BB
:1018B000E057FF4F8491882361F190E0880F991FD2
:1018C000FC01E854FF4FC591D491FC01E255FF4F54
:1018D000A591B491611109C09FB7F89488812095B2
:1018E00082238883EC912E230BC0623061F49FB772
:1018F000F8948881322F309583238883EC912E2BA6
:101900002C939FBF06C08FB7F894E8812E2B2883B5
:101910008FBFDF91CF9108951F93CF93DF93282F2F
:1019200030E0F901E859FF4F8491F901E458FF4F85
:10193000D491F901E057FF4FC491CC23C1F0162F89
:1019400081110E94270CEC2FF0E0EE0FFF1FE255F3
:10195000FF4FA591B4919FB7F894111104C08C91D9
:10196000D095D82302C0EC91DE2BDC939FBFDF9192
:10197000CF911F910895CF93DF93282F30E0F90185
:10198000E859FF4F8491F901E458FF4FD491F901D0
:10199000E057FF4FC491CC2391F081110E94270C96
:1019A000EC2FF0E0EE0FFF1FEC55FF4FA591B49127
:1019B000EC91ED2381E090E021F480E002C080E032
:1019C00090E0DF91CF9108951F920F920FB60F9282
:1019D00011242F933F934F935F936F937F938F9334
:1019E0009F93AF93BF93EF93FF9380915503909193
:1019F0005603A0915703B09158033091540323E04C
:101A0000230F2D3720F40196A11DB11D05C026E836
:101A1000230F0296A11DB11D2093540380935503FB
:101A200090935603A0935703B093580380915903A2
:101A300090915A03A0915B03B0915C030196A11DA4
:101A4000B11D8093590390935A03A0935B03B09305
:101A50005C030E94220CFF91EF91BF91AF919F9187
:101A60008F917F916F915F914F913F912F910F9047
:101A70000FBE0F901F90189584B5826084BD84B509
:101A8000816084BD85B5826085BD85B5816085BD79
:101A9000EEE6F0E0808181608083E1E8F0E0108292
:101AA000808182608083808181608083E0E8F0E0D3
:101AB000808181608083E1EBF0E0808184608083BD
:101AC000E0EBF0E0808181608083EAE7F0E08081F4
:101AD0008460808380818260808380818160808354
:101AE0008081806880831092C10008958E3008F054
:101AF0008E502091D90190E4299F90011124877084
:101B0000822B80937C0080917A00806480937A009D
:101B100080917A0086FDFCCF809178002091790039
:101B200090E0922B0895FFCFFFCFCF93DF93880FE4
:101B3000990BFC01E158FD4FC081D181AC81BD8181
:101B400011978A819B81A80FB91F2D85CD0101971F
:101B5000FD013297223019F421EB30E002C02DEC68
:101B600030E02C93DC013C939E818F819083DF01D8
:101B70008E93CF0107971E928A179B07E1F780E8A3
:101B8000DF0118978C93CF0144971E928A179B0709
:101B9000E1F7A881B9817597ED93FC93DF91CF911F
:101BA0000895089578940895F89408957894089580
:101BB000F894089508950E943C0D0E94DA0D0E9449
:101BC000260C0E94640A80915D030E94980680E0C2
:101BD00090E008958091CA0280935D03089508956E
:101BE0001F920F920FB60F9211242F933F934F9392
:101BF0005F936F937F938F939F93AF93BF93EF9375
:101C0000FF93E091DA01F091DB010995FF91EF91EB
:101C1000BF91AF919F918F917F916F915F914F9104
:101C20003F912F910F900FBE0F901F9018951F920C
:101C30000F920FB60F9211242F933F934F935F9300
:101C40006F937F938F939F93AF93BF93EF93FF9384
:101C5000E091DC01F091DD010995FF91EF91BF91D9
:101C6000AF919F918F917F916F915F914F913F9134
:101C70002F910F900FBE0F901F901895CF92DF926B
:101C8000EF92FF920F931F93CF93DF936C017A0132
:101C90008B01C0E0D0E0CE15DF0581F0D8016D9159
:101CA0008D01D601ED91FC910190F081E02DC601EE
:101CB0000995892B11F02196EECF7E01C701DF91A6
:101CC000CF911F910F91FF90EF90DF90CF900895EB
:101CD0006115710579F0FB0101900020E9F731975A
:101CE000AF01461B570BDC01ED91FC910280F381A3
:101CF000E02D099480E090E008950C94680EDC01DA
:101D0000ED91FC910190F081E02D09946CEF72E06F
:101D10000C94680E0F931F93CF93DF93EC010E94F6
:101D2000680E8C01CE010E94860E800F911FDF91FC
:101D3000CF911F910F9108958F929F92AF92BF9272
:101D4000EF92FF920F931F93CF93DF93CDB7DEB740
:101D5000A1970FB6F894DEBF0FBECDBF7C01FA018C
:101D6000CB0119A2223008F42AE08E010F5D1F4F2B
:101D7000822E912CA12CB12CBF01A50194010E94AF
:101D80001511F901CA01015011096A3014F4605D9E
:101D900001C0695CD8016C93232B242B252B61F7A0
:101DA000B801C7010E94680EA1960FB6F894DEBF75
:101DB0000FBECDBFDF91CF911F910F91FF90EF909C
:101DC000BF90AF909F908F900895CF92DF92EF9247
:101DD000FF920F931F93CF93DF932115310581F469
:101DE000DC01ED91FC910190F081E02D642FDF91F9
:101DF000CF911F910F91FF90EF90DF90CF900994BA
:101E00002A30310501F577FF1DC06A017B01EC0125
:101E10006DE20E947F0E8C0144275527BA014C19B0
:101E20005D096E097F092AE0CE010E949C0E800F99
:101E3000911FDF91CF911F910F91FF90EF90DF9055
:101E4000CF9008952AE0DF91CF911F910F91FF90DD
:101E5000EF90DF90CF900C949C0E9A01AB01770F1E
:101E6000660B770B0C94E50E0F931F93CF93DF93C4
:101E7000EC010E942D0F8C01CE010E94860E800F76
:101E8000911FDF91CF911F910F9108951F920F9293
:101E90000FB60F9211242F938F939F93EF93FF937D
:101EA000E0916E03F0916F038081E0917403F091F3
:101EB000750382FD12C09081809177038F5F8F73CD
:101EC00020917803821751F0E0917703F0E0E25A15
:101ED000FC4F958F8093770301C08081FF91EF9134
:101EE0009F918F912F910F900FBE0F901F9018957B
:101EF0001F920F920FB60F9211242F933F934F937F
:101F00005F936F937F938F939F93AF93BF93EF9361
:101F1000FF938EE593E00E940810FF91EF91BF912F
:101F2000AF919F918F917F916F915F914F913F9171
:101F30002F910F900FBE0F901F901895EEE5F3E0D4
:101F40001382128288EE93E0A0E0B0E08483958350
:101F5000A683B7838FE093E09183808385EC90E044
:101F60009587848784EC90E09787868780EC90E063
:101F7000918B808B81EC90E0938B828B82EC90E054
:101F8000958B848B86EC90E0978B868B118E128ECE
:101F9000138E148E0895FC01918D228D892F90E06F
:101FA000805C9F4F821B91098F7399270895FC01D4
:101FB000918D828D981731F0828DE80FF11D858DFE
:101FC00090E008958FEF9FEF0895FC01918D828D31
:101FD000981761F0828DDF01A80FB11D5D968C917D
:101FE000928D9F5F9F73928F90E008958FEF9FEF88
:101FF0000895FC01538D448D252F30E0842F90E00F
:10200000821B930B541710F0CF96089501970895F3
:10201000FC01848DDF01A80FB11DA35ABF4F2C9185
:10202000848D90E001968F739927848FA689B78954
:102030002C93A089B1898C91837080648C93938D4B
:10204000848D981306C00288F389E02D80818F7DEE
:1020500080830895EF92FF920F931F93CF93DF93A6
:10206000EC0181E0888F9B8D8C8D981305C0E889E9
:10207000F989808185FD26C0F62E0B8D10E00F5F5B
:102080001F4F0F731127E02E8C8DE8120CC00FB676
:1020900007FCFACFE889F989808185FFF5CFCE0169
:1020A0000E940810F1CF8B8DFE01E80FF11DE35A5D
:1020B000FF4FF0829FB7F8940B8FEA89FB898081EC
:1020C00080620AC09FB7F894EE89FF896083E8892F
:1020D000F98980818370806480839FBF81E090E074
:1020E000DF91CF911F910F91FF90EF900895CF93C3
:1020F000DF93EC01888D8823C9F0EA89FB89808110
:1021000085FD05C0A889B9898C9186FD0FC00FB6E1
:1021100007FCF5CF808185FFF2CFA889B9898C9122
:1021200085FFEDCFCE010E940810E7CFDF91CF9160
:102130000895CF92DF92EF92FF921F93CF93DF9398
:10214000EC016A017B01122FE889F98982E0808322
:102150004115514E61057105B1F060E079E08DE304
:1021600090E0A70196010E941511DA01C9010197BB
:10217000A109B109B695A795979587959C01211559
:1021800080E13807A8F0E889F989108260E874E8EE
:102190008EE190E0A70196010E941511DA01C901B4
:1021A0000197A109B109B695A795979587959C01C7
:1021B000EC85FD853083EE85FF852083188EEC89C4
:1021C000FD891083EA89FB89808180618083EA89A7
:1021D000FB89808188608083EA89FB8980818068AF
:1021E0008083EA89FB8980818F7D8083DF91CF9115
:1021F0001F91FF90EF90DF90CF900895F8940C948A
:10220000511197FB072E16F4009407D077FD09D0E3
:102210000E94371107FC05D03EF4909581959F4FA1
:102220000895709561957F4F0895A1E21A2EAA1B1B
:10223000BB1BFD010DC0AA1FBB1FEE1FFF1FA21776
:10224000B307E407F50720F0A21BB30BE40BF50B73
:10225000661F771F881F991F1A9469F760957095FC
:10226000809590959B01AC01BD01CF010895AA1BFB
:10227000BB1B51E107C0AA1FBB1FA617B70710F071
:10228000A61BB70B881F991F5A95A9F780959095A3
:10229000BC01CD010895EE0FFF1F0590F491E02DD4
:0622A0000994F894FFCF41
:1022A6000000000000000000000000000000000028
:1022B6000000000000000000000000000000000018
:1022C6000000000000000000000000000000000008
:1022D60000000000000000000000000000000000F8
:1022E60000000000000000000000000000000000E8
:1022F60000000000000000000000000000000000D8
:102306000000000000000000FF0000B10200004FC6
:1023160003FFFFFFFFFFFFFFFF00005C020000005E
:1023260000E8010000E8010000026502000000006C
:102336007A0000007A000000026E020000000062CF
:10234600000000620000000200000003040000001C
:102356000200000000010001000000FFFF00000174
:102366000000000000000000000000000000000463
:1023760000FF00000400FF000001EF0DEF0DFF530A
:1023860074617274005461736B532072756E6E695A
:102396006E673A00583D00206572726F723D0051BB
:1023A60075657565206F766572666C6F7720696EE8
:1023B600205461736B53005461736B422072756EC7
:1023C6006E696E673A004D3D00204E3D0020204D5F
:1023D6002D4E203D2000616C61726D3D005461738D
:1023E6006B562072756E6E696E673A004C45445F97
:1023F6006D6F64653D0099018A017B01B70109098A
:102406006202850601B70109096B02850600B7015C
:1024160009097402850602B201AD01A8014F03A3A2
:102426000295028702B102DB05FD0380007F0A00E8
:102436000002030100FB0389048000F20A00000188
:10244600020100DD055B0580009F0B000000010115
:102456000009050B055000930D000003000100D490
:1024660001CF010001010100000100009B0769077F
:1024760072074B07DF04E806CC041107ED078E064A
:102486009606A608DD07DF0806081209510849095D
:1024960089069B092908FE093F0A70080D0A006E85
:1024A600616E00696E66006F766600000000002AA5
:0E24B600103E0EF90F7710CB0FE50FD70F0079
:00000001FF
